:030000000235299D
:1035290075C7AA75C75575FD5A75C7AA75C7557563
:10353900FDA5787FE4F6D8FD9000007FFF7E03E4C7
:0C354900F0A3DFFCDEFA75812002359053
:103A58009002B812117A53B1BF53B2BF53B17F531A
:103A6800B27F75985043878053C4F843C4209002AE
:103A7800B812116E7F407E427D0F7C00121098C3F1
:103A880074FF9FFF74FF9EFEE49DFDE49CFC780894
:103A980012113B8FC69002B812116E7F407E427D94
:103AA8000F7C00121098C374FF9FFF8FC543C40892
:033AB800D299227E
:10455300C299E49001A3F08F999001A3E060FA223D
:103EE4009002BC12117A538EF7438901D28CE4FFFD
:103EF400FEFDFC9002BC12116EC312112A602975DA
:103F04008AFCE4F58C308DFDC28D9002BC121162E6
:103F1400EF24FFFFEE34FFFEED34FFFDEC34FFFC35
:0B3F24009002BC12117A80C6C28C22F1
:103F2F009002C012117A538EEF438910D28EE4FFA4
:103F3F00FEFDFC9002C012116EC312112A6029758A
:103F4F008BEA758DCB308FFDC28F9002C01211623C
:103F5F00EF24FFFFEE34FFFEED34FFFDEC34FFFCEA
:0B3F6F009002C012117A80C6C28E22A0
:103D16009002C412117A53C9BF53C9DF43C910D2E6
:103D2600CAE4FFFEFDFC9002C412116EC312112AF2
:103D3600602975CC3075CDF830CFFDC2CF9002C466
:103D4600121162EF24FFFFEE34FFFEED34FFFDECAF
:0E3D560034FFFC9002C412117A80C6C2CA2249
:103DB2009002C812117A75C40743C408E4FFFEFDDD
:103DC200FC9002C812116EC312112A602C75C52C08
:103DD20075C6CFE5C430E4FB53C4EF9002C812119C
:103DE20062EF24FFFFEE34FFFEED34FFFDEC34FF03
:0D3DF200FC9002C812117A80C353C4F7225E
:103DFF009002CC12117A75C40743C408E4FFFEFD8C
:103E0F00FC9002CC12116EC312112A602C75C5D80A
:103E1F0075C6FFE5C430E4FB53C4EF9002CC12111A
:103E2F0062EF24FFFFEE34FFFEED34FFFDEC34FFB5
:0D3E3F00FC9002CC12117A80C353C4F7220C
:10246900C100C1024201A000004201200000410157
:10247900A900410161004101190042012500004202
:1024890001A5000041015F0041015A0042016600B7
:102499000042011700004101A400C10144019C0050
:1024A90000000044011C000000004101A700410197
:1024B900240044015B0000000044010C00000000FE
:1024C90041019B004101A30041016500C103410194
:0624D900AA004101A2006F
:0200500080FE30
:051E1C009002AEEFF0A2
:101E2100D2C5C2C330C3FDE5BD64086003120050D2
:101E3100C2C575BCA4C2C330C3FDE5BD641860034F
:101E4100120050E4F5BCC2C330C3FDE5BD64286097
:101E510003120050E4F5BCC2C330C3FDE5BD6428E4
:101E610060031200509002AF12118600000000E4DE
:101E71007F20FEFDFC9002AF12116EC312112A5099
:101E8100339002AEE0F5BCC2C330C3FDE5BD6428AA
:101E910060031200509002AEE0F4F0A3121162EF61
:101EA1002401FFE43EFEE43DFDE43CFC9002AF1260
:101EB100117A80BBD2C4C2C3D2C5C2C330C3FDE54F
:101EC100BD64086003120050C2C575BCA4C2C33012
:101ED100C3FDE5BDB418DDD2C4C2C320C4FDD2C563
:101EE100C2C330C3FDE5BD6408600312005075BC78
:101EF100A4C2C5C2C330C3FDE5BD641860031200AE
:101F010050E4F5BCC2C330C3FDE5BD6428600312D3
:101F11000050E4F5BCC2C330C3FDE5BD64286003D5
:101F2100120050D2C5C2C330C3FDE5BD64106003C9
:101F3100120050C2C575BCA5C2C330C3FDE5BD6466
:101F41004060031200509002AF12118600000000A1
:101F5100E47F1FFEFDFC9002AF12116EC312112A25
:101F6100503AD2C2C2C330C3FDE5BD645060031212
:101F710000509002AEE065BC60031200509002AECA
:101F8100E0F4F0A3121162EF2401FFE43EFEE43D10
:101F9100FDE43CFC9002AF12117A80B4C2C2C2C30C
:101FA10030C3FDE5BD64586003120050D2C4C2C302
:031FB10020C4FD4C
:011FB400220A
:10424300900163EFF0BF01131244C17F807EEE7DC6
:10425300367C00123CC77F010245DF900163E0B466
:0B4263000208E4FF1245DF1244C122F4
:03000B00020A6383
:100A6300C0E0C0F0C083C082C0D075D000C000C059
:100A730001C002C003C004C005C006C007758CFCDA
:100A8300758A18900129E06401707390012B75F049
:100A930001120FF7900184E0FFB40111C390012C00
:100AA300E0945090012BE0940040538041EFB40256
:100AB30011C390012CE0943C90012BE09400403E44
:100AC300802C900184E0FFB40311C390012CE094C7
:100AD3002890012BE0940040258013EFB4041FC33A
:100AE30090012CE0941490012BE0940040109001AD
:100AF30029E4F090012BF0A3F090012704F090017A
:100B03002AE064016003020D3390012D75F0011298
:100B13000FF790011BE4F090024DE0FF7015C390B6
:100B2300012EE0942890012DE094005003020D2142
:100B3300020D1BEFB40115C390012EE09427900121
:100B43002DE094005003020D21020D1B90024DE095
:100B5300FFB40215C390012EE0942590012DE0947B
:100B6300005003020D21020D1BEFB40315C39001C6
:100B73002EE0942390012DE094005003020D2102F6
:100B83000D1B90024DE0FFB40415C390012EE094B9
:100B93002190012DE094005003020D21020D1BEF63
:100BA300B40515C390012EE0941F90012DE094002D
:100BB3005003020D21020D1B90024DE0FFB40615F8
:100BC300C390012EE0941D90012DE0940050030288
:100BD3000D21020D1BEFB40715C390012EE0941BEA
:100BE30090012DE094005003020D21020D1B900291
:100BF3004DE0FFB40815C390012EE0941990012D28
:100C0300E094005003020D21020D1BEFB40915C33C
:100C130090012EE0941790012DE094005003020DF3
:100C230021020D1B90024DE0FFB40A15C390012E63
:100C3300E0941590012DE094005003020D21020D64
:100C43001BEFB40B15C390012EE0941390012DE01C
:100C530094005003020D21020D1B90024DE0FFB4DE
:100C63000C15C390012EE0941190012DE0940050D7
:100C730003020D21020D1BEFB40D15C390012EE0ED
:100C8300940F90012DE094005003020D21020D1BDF
:100C930090024DE0FFB40E11C390012EE0940D902D
:100CA300012DE094004077806FEFB40F11C39001E2
:100CB3002EE0940B90012DE094004062805A900244
:100CC3004DE0FFB41011C390012EE0940990012D63
:100CD300E0940040498041EFB41111C390012EE02C
:100CE300940790012DE094004034802C90024DE055
:100CF300FFB41211C390012EE0940590012DE094EE
:100D030000401B8013EFB41315C390012EE094032E
:100D130090012DE09400400690011B7401F09001B6
:100D23001BE0B4010BE4F090012DF0A3F012317637
:100D33003002289001A0E475F001120FF790012012
:100D4300E0FEA3E0FFC39001A1E09F9001A0E09E1D
:100D53004009E4F0A3F09001A904F0900119E0B474
:100D63000128900125E475F001120FF79001A5E029
:100D7300FEA3E0FFC3900126E09F900125E09E4083
:100D830009E4F0A3F090015F04F090015AE0B4018C
:100D930028900166E475F001120FF7900117E0FE49
:100DA300A3E0FFC3900167E09F900166E09E4009C6
:100DB300E4F0A3F09001A404F030013B90019C12F5
:100DC3001162EF2401FFE43EFEE43DFDE43CFC90B0
:100DD300019C12117A90011C12116290019C121154
:100DE3006EC312112A401090019C1211860000005C
:100DF300009001A77401F0900124E0B4014A3097F8
:100E03003D90015B121162EF2401FFE43EFEE43DDD
:100E1300FDE43CFC90015B12117A90010C1211620B
:100E230090015B12116EC312112A401C90015B12D8
:100E330011860000000090019B7401F0800A90016C
:100E43005B12118600000000D007D006D005D00445
:100E5300D003D002D001D000D0D0D082D083D0F044
:030E6300D0E032AA
:063E4C0090029712117AAA
:103E5200E490029BF0A3F020022B9001A0F0A3F0CB
:103E62007FE87E03FDFC90029712116E12100DE4A2
:103E72007BE87A03F9F8121098900120EEF0A3EF94
:103E8200F0D202800874FF90029BF0A3F090029B94
:053E9200E0FEA3E0FFCB
:013E97002208
:063C210090029712117AD7
:103C2700E490029BF0A3F0900119E0702F9001251A
:103C3700F0A3F07FE87E03FDFC90029712116E124D
:103C4700100DE47BE87A03F9F81210989001A5EEBD
:103C5700F0A3EFF09001197401F0800874FF90024F
:0C3C67009BF0A3F090029BE0FEA3E0FFA6
:013C7300222E
:10451100E4900119F0900125F0A3F09001A5F0A31A
:06452100F090015FF022A2
:063C740090029712117A84
:103C7A00E490029BF0A3F090015AE0702F90016645
:103C8A00F0A3F07FE87E03FDFC90029712116E12FA
:103C9A00100DE47BE87A03F9F8121098900117EEF8
:103CAA00F0A3EFF090015A7401F0800874FF9002BB
:0C3CBA009BF0A3F090029BE0FEA3E0FF53
:013CC60022DB
:063CC70090029712117A31
:103CCD00E490029BF0A3F020012E90019C1211862E
:103CDD0000000000E47FE87E03FDFC9002971211C6
:103CED006E12100DE47BE87A03F9F812109890012A
:103CFD001C12117AD201800874FF90029BF0A3F080
:083D0D0090029BE0FEA3E0FF21
:013D1500228B
:1044C100C20190019C1211860000000090011C1293
:0C44D100118600000000E49001A7F0221A
:063B770090029712117A82
:103B7D00E490029BF0A3F0900124E0703290015B81
:103B8D0012118600000000E47FE87E03FDFC900228
:103B9D009712116E12100DE47BE87A03F9F81210EA
:103BAD009890010C12117A9001247401F080087420
:0F3BBD00FF90029BF0A3F090029BE0FEA3E0FFBD
:013BCC0022D6
:10442800E4900124F090015B1211860000000090D6
:0F443800010C12118600000000E490019BF0229D
:10452700E490015AF0900166F0A3F0900117F0A310
:06453700F09001A4F02247
:1044DD0043B710C2BC53B7FDD2B953F7FD43EF023A
:0C44ED0053B7BFD2BE53F7EF43EF1022CD
:10426E005389F0438901538EF7758CFC758A18D2E9
:10427E00A9D2AFD28C7F887E137D007C00123E4C7B
:0B428E007F107E277D007C00023B7744
:1035D500A2AF9204C2AF75C7AA75C75553A37FA200
:1035E5000492AFA2AF9204C2AF75C7AA75C755536F
:1035F500A3FBA20492AFA2AF9204C2AF75C7AA758E
:10360500C75553A3F7A20492AFA2AF9204C2AF75F8
:10361500C7AA75C75553A3FDA20492AFA2AF9204E2
:10362500C2AF75C7AA75C75543A310A20492AFA22E
:10363500AF9204C2AF75C7AA75C75543A320A204AC
:1036450092AFA2AF9204C2AF75C7AA75C75543A37F
:1036550004A20492AFA2AF9204C2AF75C7AA75C700
:093665005543A380A20492AF2298
:0300530002400266
:10400200C0D0A2AF9204C2AF75C7AA75C75553AA52
:10401200DFA20492AFA2AF9204C2AF75C7AA75C75E
:104022005543AA40A20492AFA2AF9204C2AF75C791
:0E403200AA75C75543AA80A20492AFD0D0321F
:102EDD00A2AF9204C2AF75C7AA75C755439F01A291
:102EED000492AF75A604E4F5A775AE5075AFE1A2D7
:102EFD00AF9204C2AF75C7AA75C75543A504A20406
:102F0D0092AFA2AF9204C2AF75C7AA75C75543A4BD
:102F1D0001A20492AFE59F20E6FBA2AF9204C2AFDF
:102F2D0075C7AA75C75553A5FBA20492AFA2AF9260
:102F3D0004C2AF75C7AA75C755539FFEA20492AFC1
:102F4D00A2AF9204C2AF75C7AA75C75553AA7FA287
:102F5D000492AFA2AF9204C2AF75C7AA75C755430D
:102F6D00AA04A20492AFA2AF9204C2AF75C7AA750C
:102F7D00C75543AA02A20492AFA2AF9204C2AF7585
:102F8D00C7AA75C75543AA01A20492AFA2AF920476
:102F9D00C2AF75C7AA75C75553AADFA20492AFA2D7
:102FAD00AF9204C2AF75C7AA75C75553AAEFA20455
:102FBD0092AF439B10D2AFA2AF9204C2AF75C7AA16
:0B2FCD0075C75543AA80A20492AF22F2
:10062F001244DD122EDD7F007EE11239131238A144
:10063F001245721235D5E4900165F01243E1123D77
:10064F00641237941242EF12426E7F561245537F57
:10065F003112455312453D1212279001857401F056
:10066F00A37411F0A37401F09001A8F0A2AF92044B
:10067F00C2AF75C7AA75C75543AA40A20492AFA2CD
:10068F00AF9204C2AF75C7AA75C75543AA80A2041B
:10069F0092AF900127E0B40105E4F012317620000B
:1006AF00030209CAC200C203900006E0FFB401179B
:1006BF00A3E0B48E12E4900184F090024D7414F014
:1006CF00E490012AF0D203EF64FA6008900006E08C
:1006DF0064FB707C900006E0B4FB08900164740129
:1006EF00F08005E4900164F090000AE0FF6461601F
:1006FF000FEF6462600AEF64636005EF6464704E2D
:10070F00900184E0704890000AE0B4610990018480
:10071F007401F0FB803190000AE0B4620A9001840A
:10072F007402F07B01802090000AE0B4630A90010C
:10073F00847403F07B01800F90000AE0B4640F9083
:10074F0001847404F07B017A00790412005ED203F5
:10075F00200371D20390000AE0FF6461600FEF6421
:10076F0062600AEF64636005EF6464705790018400
:10077F00E0704AC20390000AE0FFB4610B9001845D
:10078F007401F090024C8030EFB4620C90018474CD
:10079F0002F090024C148020EFB4630D900184742A
:1007AF0003F090024C7401800FEFB4641790018432
:1007BF007404F090024C7401F0C2038007E49002BD
:1007CF004CF0D203900004E07F00FE900122F0A3D2
:1007DF00EFF0900005E0FDEDFF900122EEF0A3EFAA
:1007EF00F0E490010BF0900122E0C4135407FF7E58
:1007FF0000900185E06F7001EE6005EF6407703CBB
:10080F00900122E0FEA3E07807CEC313CE13D8F9F0
:10081F007E00543FFF900186E06F7001EE6005EFA0
:10082F00643F70187E00900123E0547FFF90018792
:10083F00E06F7001EE600BEF647F600690010B7448
:10084F0001F03003030209CA90024CE06401600317
:10085F000209CA900242E0900246F0900243E090F3
:10086F000247F0900244E0900248F0900008E090B8
:10087F00024AF0900009E090024BF090024AE0FF2C
:10088F00122B3990000BE0FF7461D39F500CEF9443
:10089F00745007EF249F90024DF0900006E0B401D2
:1008AF001590010BE060030209CA7B017A007904FD
:1008BF001219140209CA900006E0640270649000D5
:1008CF000DE0900188F090000EE0900189F0E0C3F8
:1008DF001390011AF0900135E0FFC3940140179077
:1008EF00011AE0FEEFD39E500DEE04FF900135E0AC
:1008FF00FEC3EF9E800B90011AE0FF900135E0C31D
:10090F009F90013AF090011AE090013DF090010B99
:10091F00E060030209CA7B017A0079041241E70201
:10092F0009CA900006E06403706390000DE0900127
:10093F0088F090000EE0900189F0900188E0C313D9
:10094F0090011AF0900136E0FFC394014017900117
:10095F001AE0FEEFD39E500DEE04FF900136E0FE3D
:10096F00C3EF9E800B90011AE0FF900136E0C39F0A
:10097F0090013BF090011AE090013CF090010BE0E8
:10098F0070397B017A007904124563802E9000063E
:10099F00E0B4071190010BE070217B017A0079041C
:1009AF001215C68016900006E0B4060F90010BE0FA
:1009BF0070097B017A0079041245D39001A9E0B444
:1009CF000118E4F01234769002ABE0B40107E4F0C2
:1009DF00123243800543E101D2EE9002A8E0B40148
:1009EF0005E4F0122DAA1245D9EF70149001A2E080
:1009FF0004F0E0C394644008E4F0FBFDFF1222E32F
:100A0F00900161E0B40105E4F012458190015FE0CF
:100A1F00B40105E4F01244669001A4E0B40105E4CA
:100A2F00F01200039001A7E0B40107E4F07F021277
:100A3F00424390019BE06401600302067BF0A2AF8A
:100A4F009204C2AF75C7AA75C755439F80A204927F
:040A5F00AF02067B61
:10453D00E4900127F0A3F0A3F0A3F0A3F0A3F09073
:06454D00012FF0A3F02293
:1042990090029AEFF01245C590029AE0FF121FB5FD
:1042A900E490012BF0A3F090012AF090012DF0A3E6
:0B42B900F0900127F090012904F02292
:01005200228B
:1038A10053B3DF43B420D295A2AF9204C2AF75C720
:1038B100AA75C755439780A20492AFA2AF9204C2E2
:1038C100AF75C7AA75C755439740A20492AFE59655
:1038D10030E3FBA2AF9204C2AF75C7AA75C75553B7
:1038E10097DFA20492AFA2AF9204C2AF75C7AA75C7
:1038F100C7555396FBA20492AFA2AF9204C2AF7513
:10390100C7AA75C755439602A20492AFE59720E076
:02391100FB2297
:102B3900EFB40108E4900242F0022BEBEFB4020B70
:102B4900E4900242F0A37492022BFAEFB4030BE46F
:102B5900900242F0A374FF022C61EFB4040C9002BE
:102B690042740AF0A3742E022BFAEFB4050B9002FB
:102B790042740AF0A374198078EFB4060AE490024B
:102B890042F0A37450806AEFB4070B900242741E9E
:102B9900F0A374C8805BEFB4080B90024274FFF095
:102BA900E4A3022C61EFB4090C90024274FFF0A374
:102BB9007450022C70EFB40A0C900242742DF0A3E9
:102BC90074DD022C70EFB40B0E90024274FFF0E436
:102BD900A3F0A37486F022EFB40C0A90024274FFAA
:102BE900F0E4A3800CEFB40D0E90024274A7F0E458
:102BF900A3F0A374FFF022EFB40E0F900242742DDC
:102C0900F0A374DDF0A37499F022EFB40F0F9002D2
:102C19004274FFF0A374BBF0A37455F022EFB41013
:102C29000F900242740AF0A374FFF0A3742EF022ED
:102C3900EFB4110AE4900242F0A374FF8029EFB4C3
:102C4900120B900242747DF0A374FF801AEFB41343
:102C59000B90024274FFF0A3F0A3F022EFB4140B1F
:0C2C690090024274FFF0A3F0E4A3F022FC
:10191400900003120F751211D5198D011992021935
:101924009703199C0419A10519A60619AB0719B048
:101934000B19C60C19CB0D19D00E19D51819D919B4
:1019440019DE1C1AA61D19BB1F19E83119F2321928
:10195400FC331A06341A10351A1A361A24371A2E7A
:10196400381A38391A423A1A4C3B1A553C1A5E3D19
:101974001A673E1A703F1A79401A82411A8B421A2A
:1019840094431A9D4400001AD4E4FF021AD17F0143
:10199400021AD17F02021AD17F03021AD17F0D02EB
:1019A4001AD17F0C021AD17F0E021AD19001A874A9
:1019B40001F07F17021AD19001A87402F07F170278
:1019C4001AD17F0B021AD17F06021AD17F0A021A9A
:1019D400D17F0280027F010242437F0112214E7FA8
:1019E40001021AD17F0212214E7F01021AD17F0314
:1019F40012214E7F01021AD17F0412214E7F01026F
:101A04001AD17F0512214E7F01021AD17F061221BD
:101A14004E7F01021AD17F0712214E7F01021AD193
:101A24007F0812214E7F01021AD17F0912214E7FB5
:101A340001021AD17F0A12214E7F01021AD17F0BB3
:101A440012214E7F01021AD17F0C12214E7F018098
:101A54007C7F0D12214E7F0180737F0E12214E7FF9
:101A640001806A7F0F12214E7F0180617F10122155
:101A74004E7F0180587F1112214E7F01804F7F12CB
:101A840012214E7F0180467F1312214E7F01803D3B
:101A94007F1412214E7F0180347F1512214E7F0165
:101AA400802B90000DE0FF900142E0B507139000F9
:101AB4000EE0FF900143E0B507077F0112214E803D
:101AC4000A90024274FFF0A3F0A3F07F011242993E
:011AD40022EF
:1041E7009002971211CC9002971211C390000312FC
:1041F7000F75B401047F1C80119002971211C390B0
:0E4207000003120F75B404057F1D12429922A8
:10005E009002971211CC9002971211C390000912C0
:10006E000F75900188F090000A120F75900189F0BB
:10007E0020970B900164E06401600302062EE49069
:10008E000164F09002971211C3900007120F75FFD2
:10009E00D36480F874616480985010EF648094F497
:1000AE005009EF249F90024DF0800690024D74107F
:1000BE00F0120F5CFFFD3395E0FCEDF44C90013532
:1000CE007003F08002EFF0900135E0FD7F017E4776
:1000DE001225ED1244479002971211C3900001129F
:1000EE000F75FFFD3395E0FCEDF44C900136700377
:1000FE00F08002EFF0900136E0FD7F027E47122580
:10010E00ED1244479002971211C3900003120F751F
:10011E00FFFD3395E0FCEDF44C9001377003F08059
:10012E0002EFF0900137E0FD7F037E471225ED12BE
:10013E0044479002971211C3900004120F75FFFDF1
:10014E003395E0FCEDF44C9001387003F08002EF33
:10015E00F0900138E0FD7F047E471225ED124447F2
:10016E009002971211C3900005120F75FFFD339583
:10017E00E0FCEDF44C9001397003F08002EFF0904A
:10018E000139E0FD7F057E471225ED1244479002AE
:10019E00971211C390000B120F75FFFD3395E0FC03
:1001AE00EDF44C90013E7003F08002EFF090013EB2
:1001BE00E0FD7F067E471225ED124447900297120E
:1001CE0011C390000C120F75FFFD3395E0FCEDF49A
:1001DE004C90013F7003F08002EFF090013FE0FD84
:1001EE007F077E471225ED1244479002971211C3E6
:1001FE0090000D120F75FFFD3395E0FCEDF44C9061
:10020E0001427003F08002EFF0900142E0FD7F0AA0
:10021E007E471225ED1244479002971211C39000AB
:10022E000E120F75FFFD3395E0FCEDF44C9001407E
:10023E007003F08002EFF0900140E0FD7F087E47F2
:10024E001225ED1244479002971211C390000F121F
:10025E000F75FFFD3395E0FCEDF44C9001417003FA
:10026E00F08002EFF0900141E0FD7F097E471225FC
:10027E00ED1244479002971211C3900016120F759B
:10028E00FFFD3395E0FCEDF44C9001457003F080DA
:10029E0002EFF0900145E0FD7F0C7E471225ED1236
:1002AE0044479002971211C3900017120F75FFFD6D
:1002BE003395E0FCEDF44C9001467003F08002EFB4
:1002CE00F0900146E0FD7F0D7E471225ED1244476A
:1002DE009002971211C3900018120F75FFFD3395FF
:1002EE00E0FCEDF44C9001477003F08002EFF090CB
:1002FE000147E0FD7F0E7E471225ED124447900226
:10030E00971211C3900019120F75FFFD3395E0FC83
:10031E00EDF44C9001487003F08002EFF09001482C
:10032E00E0FD7F0F7E471225ED1244479002971293
:10033E0011C390001B120F75FFFD3395E0FCEDF419
:10034E004C9001497003F08002EFF0900149E0FDFE
:10035E007F107E471225ED1244479002971211C36B
:10036E0090001C120F75FFFD3395E0FCEDF44C90E0
:10037E00014A7003F08002EFF090014AE0FD7F1118
:10038E007E471225ED1244479002971211C390003A
:10039E001D120F75FFFD3395E0FCEDF44C90014BF3
:1003AE007003F08002EFF090014BE0FD7F127E476C
:1003BE001225ED1244479002971211C390001E129F
:1003CE000F75FFFD3395E0FCEDF44C90014C70037E
:1003DE00F08002EFF090014CE0FD7F137E47122576
:1003EE00ED1244479002971211C3900020120F7520
:1003FE00FFFD3395E0FCEDF44C90014D7003F08061
:10040E0002EFF090014DE0FD7F147E471225ED12B4
:10041E0044479002971211C3900021120F75FFFDF1
:10042E003395E0FCEDF44C90014E7003F08002EF3A
:10043E00F090014EE0FD7F157E471225ED124447E8
:10044E009002971211C3900022120F75FFFD339583
:10045E00E0FCEDF44C90014F7003F08002EFF09051
:10046E00014FE0FD7F167E471225ED1244479002A4
:10047E00971211C3900023120F75FFFD3395E0FC08
:10048E00EDF44C9001507003F08002EFF0900150AB
:10049E00E0FD7F177E471225ED124447900297121A
:1004AE0011C3900025120F75FFFD3395E0FCEDF49E
:1004BE004C9001517003F08002EFF0900151E0FD7D
:1004CE007F187E471225ED1244479002971211C3F2
:1004DE00900026120F75FFFD3395E0FCEDF44C9065
:1004EE0001527003F08002EFF0900152E0FD7F198F
:1004FE007E471225ED1244479002971211C39000C9
:10050E0027120F75FFFD3395E0FCEDF44C9001536F
:10051E007003F08002EFF0900153E0FD7F1A7E47EA
:10052E001225ED1244479002971211C39000281223
:10053E000F75FFFD3395E0FCEDF44C900154700304
:10054E00F08002EFF0900154E0FD7F1B7E471225F4
:10055E00ED1244479002971211C390002A120F75A4
:10056E00FFFD3395E0FCEDF44C9001557003F080E7
:10057E0002EFF0900155E0FD7F1C7E471225ED1233
:10058E0044479002971211C390002B120F75FFFD76
:10059E003395E0FCEDF44C9001567003F08002EFC1
:1005AE00F0900156E0FD7F1D7E471225ED12444767
:1005BE009002971211C390002C120F75FFFD339508
:1005CE00E0FCEDF44C9001577003F08002EFF090D8
:1005DE000157E0FD7F1E7E471225ED124447900223
:1005EE00971211C390002D120F75FFFD3395E0FC8D
:1005FE00EDF44C9001587003F08002EFF09001582A
:10060E00E0FD7F1F7E471225ED1244477D637F205C
:10061E007E471225ED124447E4FB7DFFFF1222E3D5
:01062E0022A9
:101227007F017E471245B6EF7F00FEC006C0077FED
:10123700027E471245B6EFFDD0E02DFED0E0340028
:10124700900110F0A3CEF07F037E471245B6EF7FE3
:1012570000FEC006C0077F047E471245B6EFFDD0EB
:10126700E02DFED0E03400900112F0A3CEF0900103
:1012770010E0FCA3E0FDEC900135F0EDA3F0900148
:1012870012E0FCA3E0FDEC900137F0EDA3F07F0541
:101297007E471245B6EF7F00FEC006C0077F067E79
:1012A700471245B6EFFDD0E02DFED0E034009001A7
:1012B70010F0A3CEF07F077E471245B6EF7F00FE02
:1012C700C006C0077F087E471245B6EFFDD0E02D68
:1012D700FED0E03400900112F0A3CEF0900110E0B0
:1012E700FCA3E0FDEC900139F0ED90013EF0900198
:1012F70012E0FCA3E0FDEC90013FF0EDA3F07F09C5
:101307007E471245B6EF7F00FEC006C0077F0A7E04
:10131700471245B6EFFDD0E02DFED0E03400900136
:1013270010F0A3CEF07F0B7E471245B6EF7F00FE8D
:10133700C006C0077F0C7E471245B6EFFDD0E02DF3
:10134700FED0E03400900112F0A3CEF0900110E03F
:10135700FCA3E0FDEC900141F0EDA3F0900112E059
:10136700FCA3E0FDEC900143F0ED900145F07F0D0B
:101377007E471245B6EF7F00FEC006C0077F0E7E90
:10138700471245B6EFFDD0E02DFED0E034009001C6
:1013970010F0A3CEF07F0F7E471245B6EF7F00FE19
:1013A700C006C0077F107E471245B6EFFDD0E02D7F
:1013B700FED0E03400900112F0A3CEF0900110E0CF
:1013C700FCA3E0FDEC900146F0EDA3F0900112E0E4
:1013D700FCA3E0FDEC900148F0EDA3F07F117E4700
:1013E7001245B6EF7F00FEC006C0077F127E471288
:1013F70045B6EFFDD0E02DFED0E03400900110F0AF
:10140700A3CEF07F137E471245B6EF7F00FEC006DE
:10141700C0077F147E471245B6EFFDD0E02DFED002
:10142700E03400900112F0A3CEF0900110E0FCA38D
:10143700E0FDEC90014AF0EDA3F0900112E0FCA36F
:10144700E0FDEC90014CF0EDA3F07F157E471245CF
:10145700B6EF7F00FEC006C0077F167E471245B66F
:10146700EFFDD0E02DFED0E03400900110F0A3CEC8
:10147700F07F177E471245B6EF7F00FEC006C00714
:101487007F187E471245B6EFFDD0E02DFED0E03441
:1014970000900112F0A3CEF0900110E0FCA3E0FD54
:1014A700EC90014EF0EDA3F0900112E0FCA3E0FDFB
:1014B700EC900150F0EDA3F07F197E471245B6EF8F
:1014C7007F00FEC006C0077F1A7E471245B6EFFDB4
:1014D700D0E02DFED0E03400900110F0A3CEF07FD5
:1014E7001B7E471245B6EF7F00FEC006C0077F1C74
:1014F7007E471245B6EFFDD0E02DFED0E0340090D8
:101507000112F0A3CEF0900110E0FCA3E0FDEC90F7
:101517000152F0EDA3F0900112E0FCA3E0FDEC9086
:101527000154F0EDA3F07F1D7E471245B6EF7F0013
:10153700FEC006C0077F1E7E471245B6EFFDD0E00E
:101547002DFED0E03400900110F0A3CEF07F1F7E77
:10155700471245B6EF7F00FEC006C0077F1F7E47D4
:101567001245B6EFFDD0E02DFED0E0340090011219
:10157700F0A3CEF0900110E0FCA3E0FDEC90015643
:10158700F0EDA3F0900112E0FCA3E0FDEC90015810
:10159700F0ED900144F07F721245537F3A124553A4
:1015A70090013EE0FF1245537F2F124553900146AD
:0F15B700E0FF1245537F0D1245537F0A02455343
:1015C6009002971211CC90013EE0900116F0900027
:1015D60075120F75FF640570030216E3EFB40A0671
:1015E6009001450216DE9002971211C39000751203
:1015F6000F75FFB40F069001460216DEEFB414060F
:101606009001470216DE900075120F75FFB4190699
:101616009001480216DEEFB41E069001490216DE5E
:10162600900075120F75FFB4230690014A0216DE6C
:10163600EFB4280690014B0216DE900075120F7566
:10164600FFB42D0690014C0216DEEFB4320690016F
:101656004D0216DE900075120F75FFB43705900126
:101666004E8075EFB43C0590014F806C900075126A
:101676000F75FFB44105900150805DEFB4460590AB
:1016860001518054900075120F75FFB44B059001FF
:10169600528045EFB45005900153803C900075127E
:1016A6000F75FFB45505900154802DEFB45A05907F
:1016B60001558024900075120F75FFB45F059001E7
:1016C600568015EFB46405900157800C9000751292
:1016D6000F75B46908900158E0900116F090011654
:1016E600E0FFC394015003021913EFD3941540038E
:1016F6000219139002971211C3900116E075F005B6
:101706009000071211B7120F7590018BF090029797
:101716001211C375F005EF9000081211B7120F757C
:1017260090018CF09002971211C3900116E075F0AB
:10173600059000091211B7120F7590018DF09002F5
:10174600971211C375F005EF90000A1211B7120F28
:101756007590018FF09002971211C3900116E075F3
:10176600F00590000B1211B7120F7590018EF0A3C1
:10177600E0FFB4010CE490024DF090018FF00219E5
:101786000EEFD39401400DEF940C5008E490024DF7
:10179600F002190EEFC3940C400EEF941850099006
:1017A600024D7401F002190EEFC39418400EEF9427
:1017B60024500990024D7402F002190EEFC39424CE
:1017C600400EEF9430500990024D7403F002190E4A
:1017D600EFC39430400EEF943C500990024D7404D0
:1017E600F002190EEFC3943C400EEF944850099056
:1017F600024D7405F002190EEFC39448400EEF94A3
:1018060054500990024D7406F002190EEFC3945419
:10181600400EEF9460500990024D7407F002190EC5
:10182600EFC39460400EEF946C500990024D74081B
:10183600F002190EEFC3946C400EEF9478500990A5
:10184600024D7409F002190EEFC39478400EEF941E
:1018560084500990024D740AF002190EEFC3948465
:10186600400EEF9490500990024D740BF002190E41
:10187600EFC39490400EEF949C500990024D740C67
:10188600F002190EEFC3949C400DEF94A8500890F7
:10189600024D740DF08071EFC394A8400DEF94B41F
:1018A600500890024D740EF0805EEFC394B4400D64
:1018B600EF94C0500890024D740FF0804BEFC39424
:1018C600C0400DEF94CC500890024D7410F0803853
:1018D600EFC394CC400DEF94D8500890024D74118C
:1018E600F08025EFC394D8400DEF94E450089002A1
:1018F6004D7412F08012EFC394E4400CEFD394FFC2
:0E190600500690024D7413F07F801242992219
:10444700E4900160F0E4900162F0900162E004F012
:0F445700E0B4FAF6900160E004F0E0B4AAE722C6
:0645D3009002970211CCDA
:0F456300900003120F75B419057F36124299228A
:1024DF0054021600C00122022C039B04070D2E117B
:1024EF000A295632923BEB606801AB0500060007E4
:1024FF007108B0090E0A000B000C730E130F1010A9
:10250F008412E013001415157F1600170018011917
:10251F00001A001BA41C011D011E501F8120032146
:10252F008422002380241925002600278028AC2A26
:10253F00532BD42C402D492EFF2F503038310033E0
:10254F00FA34003500360037C0380039003A203CE5
:03255F00033D0039
:1044F900123BCD7F4712459DEF54E02408FFE43479
:0745090047FE1241BF7F01D4
:014510002288
:100026007F4712459DEF54E02410FFE43447FE025B
:0200360041BFC8
:10003E007F4712459DEF54E02402FFE43447FE0251
:02004E0041BFB0
:0745BE007FFF7E420241BFB6
:103BCD0012002612003EE4900298F0900298E0FF59
:103BDD00C394095015EF25E02416F582E434021242
:103BED0041B8900298E004F080E1E4900298F090E2
:103BFD000298E0FFC394345015EF25E024ABF58215
:103C0D00E434011241B8900298E004F080E11245CD
:043C1D00BE02003EA5
:0741B800F583E0FEA3E0FF28
:1041BF0053B3EF53B4EFC293C2907D10C293EE305E
:1041CF00E704D2948002C294D293EF25E0FFEE333E
:0741DF00FEDDE9C293D2905E
:0141E60022B6
:0C459D00EF2480FF1244051242C4D290AB
:0145A90022EF
:10440500C29453B3EF53B4EFC293C2907E08C293E4
:10441500EF30E704D2948002C294D293EF25E0FFF7
:02442500DEECCB
:014427002272
:1042C400E4FFC294C29043B31053B4EF7E08C29388
:1042D400EF25E0FFD2933094034401FFDEF0C29354
:0A42E40053B3EF53B4EFD290C2942D
:0142EE0022AD
:1043E10053B3F753B4F753B3FE53B4FE53B3EF5380
:1043F100B4EFC293C290C2949002157401F0123EC0
:04440100980244F9E0
:102FD800E4900298F0A3F0900298E0FEA3E0FFC30B
:102FE8009409EE64809480504FEF25E0FFEE33FEA5
:102FF80074162FF58274023EF583E0FF12459D900A
:10300800029AEFF0FD900299E025E0FF900298E027
:1030180033FE74162FF58274023EF583A3E06D70BB
:1030280001E46008900213E4F0A304F0900298E42D
:1030380075F001120FF7809FE4900298F0A3F090CA
:103048000298E0FEA3E0FFC39434EE6480948050BD
:103058004FEF25E0FFEE33FE74AB2FF58274013E8F
:10306800F583E0FF12459D90029AEFF0FD900299DA
:10307800E025E0FF900298E033FE74AB2FF58274F0
:10308800013EF583A3E06D7001E46008900213E44B
:10309800F0A304F0900298E475F001120FF7809FF6
:0130A8002205
:103E980012002612003E7F007E3F1241BF7F007E47
:103EA800401241BF7F007E411241BF7F007E421217
:103EB80041BF7F007E431241BF7F007E441241BF55
:103EC8007F007E451241BF7F047E461241BF7F00BE
:0C3ED8007E471241BF7F007E4F0241BFB9
:10347600E4900297F0900165E0700F1243E1123E6E
:10348600981244F99001657401F07F3F12459D90B2
:103496000297EFF06008900213E4F0A304F07F4077
:1034A60012459D900297EFF06008900213E4F0A396
:1034B60004F07F4112459D900297EFF0600890025C
:1034C60013E4F0A304F07F4312459D900297EFF0BA
:1034D6006008900213E4F0A304F07F4412459D9027
:1034E6000297EFF06008900213E4F0A304F07F4621
:1034F60012459D900297EFF064046008900213E471
:10350600F0A304F0122FD8900213E07004A3E06435
:1035160001700F900213F0A3F01243E1123E9812CD
:0235260044F966
:013528002280
:0D25620041000000410001004200020000A5
:10391300900297EEF0A3EFF053B1BF53B2BF53B190
:103923007F53B27F75985243878053C4F843C420B2
:10393300900297E0FEA3E0FBAA06E4F9F87F407E3D
:10394300427D0FFC123FBEC374FF9FFF74FF9EFEB8
:10395300E49DFDE49CFC780812114E8FC6900297FB
:10396300E0FEA3E0FBAA06E4F9F87F407E427D0F68
:10397300FC123FBEC374FF9FFF8FC543C408D2AC84
:013983002221
:0F45720053C4F775C6FF75C5F343C408D2992229
:03002300022C7537
:102C7500C0E0C0F0C083C082C0D075D000C000C025
:102C850001C002C003C004C005C006C0079000888B
:102C9500E4F0209803022D84C298E599F0E07003D2
:102CA500022D84900086F0900000E0FF70159000E2
:102CB50086E0900000B45A067401F0022D84E4F019
:102CC500022D84EFB40115900086E0900000B4A5B4
:102CD500067402F0022D84E4F0022D84900000E0D9
:102CE500B40215900086E0900000B4C3067403F0AA
:102CF500022D84E4F0022D84900001E004F0E0FF51
:102D0500D3947F5021900088E0FE900002E0FCA360
:102D1500E02489F58274003CF583EEF0900002E42E
:102D250075F001120FF7EF647F7054900106E064AF
:102D3500F07030900000F0900002F0A3F0900001D8
:102D4500F078047C007D017B017A007989FE7F8221
:102D5500120F361245D9EF6002D2007E007F827DC8
:102D6500008013900002E4F0A3F0900001F09000C1
:102D750000F0FE7F82FD7B017A0079891211FB301C
:102D85009908C2999001A37401F0D007D006D00527
:102D9500D004D003D002D001D000D0D0D082D083CF
:052DA500D0F0D0E03287
:10404000E49002D2F0EFC4540FFEEF540FFDD3946E
:1040500009ED50052430F0800624579002D2F0EE8E
:10406000D39409EE50052430FC80032457FCAF04A0
:0B4070001245539002D2E0FF024553BE
:08256F004102D1004102D0013C
:103D640053B3DF53B4DFD29543B32053B4DF439B43
:103D740002D2AF53B3FB53B4FBC29243B30453B464
:103D8400FB53B1EF53B2EFD284439B02D2AF53B390
:103D94007F53B47FC29743B38053B47F43E9014355
:0E3DA400E98043EA8053EB7F439B02D2AF22BB
:03003B0002381F69
:10381F00C0E0C0F0C083C082C0D075D000C000C06F
:10382F0001C002C003C004C005C006C007E5ECB468
:10383F000102801AE5ECB404028013E5ECB4100227
:10384F00800CE5ECB420028005E5ECB4400575EC86
:10385F00008024E5EC6480701EF5ECE5A230E705EE
:10386F0053A27F8012900130E0700C1245D9EF60A7
:10387F00069001617401F0D007D006D005D004D0B6
:10388F0003D002D001D000D0D0D082D083D0F0D0DE
:02389F00E03215
:1044660012451120971812370590015AE0700F90E7
:0F44760002D104F07F2CFE7D007C00123C7422EA
:08000300E49002D1F002452750
:103705009002D3E0640170030237939002D1E06424
:1037150001607B1245D9EF60759001AAE014602223
:1037250014603614604B2403705290024274FFF00B
:10373500A3F0A3F0A3740AF09001847402F07F0152
:10374500803790024274FFF0A3F0A3F0A3740AF04F
:1037550090024D14F07F0D802090024274FFF0A37B
:10376500F0A3F0A3740AF090024D7413F07F0D805E
:10377500089001847402F0E4FF1242999001AAE0D6
:0F378500C394034003E4F0229001AAE004F02271
:0E4581001245117F147E007D007C00023C215B
:10257700410291004102900041028F004102920006
:1025870041028E0041028D0041028C0041028B0006
:1025970044028700000000420283000042029500C7
:0B25A700004202930000420285000089
:1037940053B1FE53B2FE53B1FD53B2FD53B1F753CF
:1037A400B2F753B1DF53B2DF43DE0843DE1043DE2A
:1037B40020A2AF9204C2AF75C7AA75C75543910141
:1037C40043C60475C7AA75C7555391FEA20492AFA8
:1037D40053DF3F43DF0353DFFB75D10775D9CFE4D4
:1037E400F5D4F5DCF5D5F5DDA2AF9204C2AF75C70B
:1037F400AA75C755439101A20492AFF5C4F5CCF55F
:10380400C5F5CDA2AF9204C2AF75C7AA75C755530B
:0B38140091FEA20492AFD2DED2DF22B0
:1022E3009002A1EDF0A3EBF0AA07900287121186EA
:1022F30000000000E4900283F0A3F0900295F0A3A5
:10230300F0900293F0A3F0900285F0A3F090028B7B
:10231300F0EAB4FF1A9002A1E0B4FF13A3E0B4FF04
:102323000EE4FA9002A1F0A3F090028B74D8F0901F
:102333000291EAF09002A1E0FF900290F09002A2D5
:10234300E0FE90028FF090028BE0900292F09002F8
:102353008EEAF090028DEFF090028CEEF0AFD1EFA9
:102363007F00FEE5D97C0060047D0180027D00EEE4
:102373004CFEEF4DFFE4FCFD90028712117AAF0291
:10238300E4FCFDFE90028712116E12100DE47BFF38
:10239300FAF9F8121098900283EEF0A3EFF090028E
:1023A300A1E0FFE4FCFDFE90028712116E12100DF6
:1023B300E47BFFFAF9F8121098900295EEF0A3EF80
:1023C300F09002A2E0FFE4FCFDFE90028712116E82
:1023D30012100DE47BFFFAF9F8121098900293EEB5
:1023E300F0A3EFF090028BE0FFE4FCFDFE90028788
:1023F30012116E12100DE47BFFFAF9F81210989087
:102403000285EEF0A3EFF0C2DE900283E0FCA3E0CE
:10241300FDECF5D4EDF5DCA3E0FCA3E0FDECF5D594
:10242300EDF5DDA2AF9204C2AF75C7AA75C75543D8
:102433009101A20492AF900293E0FCA3E0FDECF5BE
:10244300C4EDF5CCA3E0FCA3E0FDECF5C5EDF5CDC3
:10245300A2AF9204C2AF75C7AA75C7555391FEA226
:062463000492AFD2DE225C
:1025B2004102A8004102A9004202A300004202AC6B
:0F25C20000004202A500004102AA004102AB0046
:1042EF0053B3FD53B4FDC29153E8F043E80743B312
:1042FF000253B4FDE4F5F643F68043E101D2AED2AA
:0B430F00AF9002A704F09002ABF02278
:03005B0002000E92
:10000E00C0E0C083C082C2EF9002A87401F0D0821B
:05001E00D083D0E032A8
:10324300C2EFE49002A8F00232FD9002A8E0B401BC
:10325300F9E4F0AFC3EF75F010A4FFE5F0540FFEEF
:10326300E5C2540FFDEF4DFF9002A3EEF0A3EFF084
:1032730053E1FE9002AAE004F09002A3E0FEA3E073
:10328300FFA3EE8FF0120FF79002AAE0C39403405E
:1032930069E4F09002A5E0FEA3E0FF7C007D031249
:1032A3000FA29002A5EEF0A3EFF09002ACEEF0A314
:1032B300EFF0E49002A5F0A3F0C3EF9483EE940A39
:1032C3005012E4A3F09002A904F090018404F0E406
:1032D300FF0242999002ACE0FEA3E0FFC39483EEA9
:1032E300940A400FEF9435EE940D50079002A774A3
:1032F30001F0229002A77402F02243E101D2EE0210
:02330300324D49
:102DAA009002A9E06003022ED9AFC3EF75F010A418
:102DBA00FFE5F0540FFEE5C2540FFDEF4DFF900200
:102DCA00A3EEF0A3EFF053E1FE90023DE0600302B0
:102DDA002EDC900291E06003022EDC900290E0600B
:102DEA0003022EDC90028FE06003022EDC90029236
:102DFA00E06003022EDCD39002ADE094009002ACB6
:102E0A00E094005022E49002AAF0E004F09002A3B9
:102E1A00E0FEA3E0FF9002ACEEF0A3EFF09002A573
:102E2A00EEF0A3EFF0805490012FE0D39400400518
:102E3A00E014F080469002AAE004F09002A3E0FEBB
:102E4A00A3E0FFA3EE8FF0120FF79002AAE0C3945B
:102E5A00034028E4F09002A5E0FEA3E0FF7C007D99
:102E6A0003120FA29002A5EEF0A3EFF09002ACEECF
:102E7A00F0A3EFF0E49002A5F0A3F09002AAE0D349
:102E8A0094034002E4F0C39002ADE094AC9002AC2B
:102E9A00E0940A5014E49002A7F09002A904F0907A
:102EAA00018404F0E4FF0242999002ACE0FEA3E040
:102EBA00FFC394ACEE940A400FEF946AEE940E505E
:102ECA00079002A77401F0229002A77402F022531D
:032EDA00E1FE22F4
:0645D9009002A7E0FF22A2
:0645DF009002D3EFF02270
:101FB500EF1211D51FFC00200201201902202E036B
:101FC500204504205105206106207208207C092047
:101FD500090A208C0B20B80C209C0D20AA0E20C6C7
:101FE5001720E91920D51A20FD1C21041D212E36A4
:101FF500211F800000214DE490023DF02290023D1A
:102005007401F0227D017F647E0012003890023D4C
:10201500740AF02290023D7402F0E490029FF0A34E
:10202500F07B64FA7D64FF801490023D7403F0E454
:1020350090029FF0A3F07B64FA7D647F140227551C
:1020450090023D7404F0E4FB7D05800A90023D7426
:1020550005F0E4FB7D067F64FE023ABB90023D7409
:1020650006F07B017D057F647E00023B1B90023DEF
:102075007408F0E4FB800990023D7409F07B03E4E9
:10208500FD7F64FE0233C17D017F647E001245AA97
:1020950090023D740BF0227F0F7E001243BA90022E
:1020A5003D740DF0227F0F7E0012431A90023D749D
:1020B5000EF0227F0F7E0012434290023D740CF019
:1020C50022E4FD7F32FE12366E90023D7417F02237
:1020D50090024D7410F07F0B7E0012439290023DEA
:1020E5007419F02290024D7410F07F037E001243A4
:1020F5006A90023D741AF02290023D741C8005908E
:10210500023D741DF0900189E0FB900135E09002DD
:102115009FF0E4FD7F0AFE0241219002417401F027
:1021250090023D744FF00244A390023D743DF0903F
:102135000188E0FB900136E090029FF0A37401F066
:09214500E4FD7F0AFE123F7A223C
:1025D1004102400041023C0041028200410251009F
:0B25E1004802530000000A0000000A3E
:10448500E490023FF0900129F090012BF0A3F09009
:0E449500012AF090012DF0A3F0900127F022F3
:0745C50090023F7401F02297
:1040B500EF1211D540D20040D60140DA0240E203AA
:1040C50040DE0440E20540E606000040E27EFF8057
:1040D500127EFF800E7EFF800A7E018006E4FE8050
:0540E500027E80AF0621
:0140EA0022B3
:10415400EF1211D54181004171014175024179038A
:10416400417D04418105418106000041817E4080FA
:104174000E7E60800A7EFF80067EA88002E4FEAF89
:014184000634
:014185002217
:10421500EF1211D5423200423201423202423203DC
:10422500423604423A05423E0600004232E4FE8030
:0D4235000A7EDC80067EFF80027E80AF06E0
:014242002259
:10418600EF1211D541A30041A30141A30241A303AC
:1041960041A70441AB0541AF06000041B37EFF8055
:1041A6000E7E64800A7E3280067E508002E4FEAF78
:0141B6000602
:0141B70022E5
:1040EB00EF1211D5411800410801410C0241100398
:1040FB004114044118054118060000411C7E6480E0
:10410B00127EFF800E7EFF800A7EFF80067E32804D
:05411B0002E4FEAF0606
:01412000227C
:10407B00EF1211D5409800409C0140A00240A003D4
:10408B0040A40440A80540AC06000040B07E0F8061
:10409B00167E0F80127E0A800E7E50800A7EFF8075
:0940AB00067EC88002E4FEAF06A7
:0140B40022E9
:101AD500EF1211D51B31001B39011B43021B4E03AD
:101AE5001B59041B64051B6F061B7A071B85081B06
:101AF50090091B9B0A1BA80B1BB60C1BC40D1BD204
:101B05000E1BE00F1BEB101BF5111BFF121C09131D
:101B15001C13141C1B151C25161C2F171C39181CEF
:101B250047191C551A1C631B00001C719002367462
:101B3500FF021C7590023674FFF0E4021C769002D9
:101B45003674FFF0A3745B805590023674FFF0A3E2
:101B5500748B804A90023674FFF0A374C8803F905E
:101B6500023674FFF0A374F8803490023674E0F006
:101B7500A374FF802990023674A8F0A374FF801E19
:101B8500900236747DF0A374FF8013900236743F83
:101B9500F0A374FF8008E4900236F0A374FFF0E42C
:101BA500A3F022E4900236F0A374FFF0A37430F0A2
:101BB50022E4900236F0A374FFF0A37473F022E4DC
:101BC500900236F0A374FFF0A374A3F022E4900210
:101BD50036F0A374FFF0A374E0F022E4900236F02F
:101BE500A374FF021C77E4900236F0A374C9804CFD
:101BF500E4900236F0A374928042E4900236F0A39A
:101C050074628038E4900236F0A3744F802EE4901D
:101C15000236F0A380269002367444F0E4A3801CBB
:101C2500900236746FF0E4A3801290023674A7F028
:101C3500E4A3800890023674E6F0E4A3F0A374FFF1
:101C4500F02290023674FFF0E4A3F0A374F3F022BF
:101C550090023674FFF0E4A3F0A374B7F02290026B
:101C65003674FFF0E4A3F0A37486F022E490023604
:061C7500F0A3F0A3F02231
:1030A900EF1211D5310500310901310D023111033A
:1030B900311504311905311D063121073125083132
:1030C9002909312D0A31310B31350C31390D313D99
:1030D9000E31410F314510314911314D1231511322
:1030E900315514315915315D163161173165183172
:1030F9006919316D1A31711B000031417E17806ADF
:103109007E1280667E1180627E15805E7E04805A02
:103119007E0D80567E0380527E0E804E7E05804A4B
:103129007E1A80467E1680427E18803E7E07803A4F
:103139007E1980367E098032E4FE802E7E01802A47
:103149007E0C80267E1480227E0B801E7E0F801AC4
:103159007E1B80167E1080127E08800E7E06800AF5
:0C3169007E0280067E0A80027E13AF0604
:013175002237
:0C45AA00E4900246F0A3F0A3F0021C7B9A
:03003800021C7B2C
:0827550090029BEFF0A3EDF0F0
:10275D0090029BE0FF900242E08FF0A4FFAEF07C70
:10276D00007D64120FA2900253EFF090029BE0FFE8
:10277D00900243E08FF0A4FFAEF07C007D64120F59
:10278D00A2900254EFF090029BE0FF900244E08F84
:10279D00F0A4FFAEF07C007D64120FA2900255EF05
:1027AD00F090029CE0FF900242E08FF0A4FFAEF0AB
:1027BD007C007D64120FA2900257EFF090029CE016
:1027CD00FF900243E08FF0A4FFAEF07C007D641219
:1027DD000FA2900258EFF090029CE0FF900244E0AF
:1027ED008FF0A4FFAEF07C007D64120FA290025911
:1027FD00EFF090029FE0FF25E025E02453F582E401
:10280D003402F583E0900246F0EF25E025E02454F4
:10281D00F582E43402F583E0900247F090029FE0E8
:10282D0025E025E02455F582E43402F583E090029D
:10283D0048F0900263EFF090029F04F0E0D3940112
:10284D004002E4F090029FE0FF25E025E02453F5DF
:10285D0082E43402F583E0900242F0EF25E025E0BA
:10286D002454F582E43402F583E0900243F09002A3
:10287D009FE025E025E02455F582E43402F583E060
:10288D00900244F0AE02AF03E4FD121C7B9002A057
:0A289D00E0900269F0E4900268F098
:0128A700220E
:10366E00AB07AA069001A8E0AF05B4021912418675
:10367E00900246EFF0AF051240EB900247EFF0AF2D
:10368E000512407B80171240B5900246EFF0AF0551
:10369E00124154900247EFF0AF05124215900248C6
:1036AE00EFF0900263EDF00DEDD394064002E4FDD1
:1036BE009001A8E0AF05B40219124186900242EFC4
:1036CE00F0AF051240EB900243EFF0AF0512407BD6
:1036DE0080171240B5900242EFF0AF0512415490A0
:1036EE000243EFF0AF05124215900244EFF0AE0226
:0736FE00AF037D02021C7BFB
:103ABB0090029BEEF0A3EFF0A3EBF0EDB40615E450
:103ACB00900246F0A3F0A3F090029BE0FEA3E0FF70
:103ADB007D06802B900242E0900246F0900243E07C
:103AEB00900247F0900244E0900248F0E4900242CA
:103AFB00F0A3F0A3F090029BE0FEA3E0FF7D051284
:103B0B001C7B90029DE0900269F0E4900268F02229
:1033C10090029BEEF0A3EFF090025374FFF0E4A3A0
:1033D100F0A3F0900257F0A374FFF0E4A3F0ED2501
:1033E100E025E02453F582E43402F583E0900246BF
:1033F100F0ED25E025E02454F582E43402F583E084
:10340100900247F0ED25E025E02455F582E43402F1
:10341100F583E0900248F0900263EDF00DEDD39456
:10342100014002E4FDED25E025E02453F582E4347A
:1034310002F583E0900242F0ED25E025E02454F509
:1034410082E43402F583E0900243F0ED25E025E0CB
:103451002455F582E43402F583E0900244F09002B1
:1034610069EBF0E4900268F090029BE0FEA3E0FFBC
:053471007D07021C7B39
:101C7B0090025DEDF0E4A3F0EF4E6008900261EE90
:101C8B00F0A3EFF0900261E0FFA3E090025FCFF0D2
:101C9B00A3EFF0900246E0FF90026AF0900247E05B
:101CAB00FE90026BF0900248E0FD90026CF0900207
:101CBB0042E090026DF0900243E090026EF09002D1
:101CCB0044E090026FF0900273EFF0A3EEF0A3EDFF
:101CDB00F0A3740AF090026DE0FF90026AE0C39FDC
:101CEB0050109002707401F090026AE0FF90026D48
:101CFB00800DE4900270F090026DE0FF90026AE0BC
:101D0B00C39F90027AF090027AE0FF7E009002610E
:101D1B00E0FCA3E0FD120FA2900277EFF090027AA5
:101D2B00E0FF7E00900261E0FAA3E0FBFDAC021243
:101D3B000FA2AF03AE02120FA290027DEFF0900242
:101D4B006EE0FF90026BE0C39F5010900271740124
:101D5B00F090026BE0FF90026E800DE4900271F048
:101D6B0090026EE0FF90026BE0C39F90027BF090BD
:101D7B00027BE0FF7E00900261E0FCA3E0FD120F0E
:101D8B00A2900278EFF090027BE0FF7E0090026160
:101D9B00E0FAA3E0FBFDAC02120FA2AF03AE0212FE
:101DAB000FA290027EEFF090026FE0FF90026CE0CA
:101DBB00C39F50109002727401F090026CE0FF9080
:101DCB00026F800DE4900272F090026FE0FF9002C0
:101DDB006CE0C39F90027CF090027CE0FF7E009051
:101DEB000261E0FCA3E0FD120FA2900279EFF090EC
:101DFB00027CE0FF7E00900261E0FAA3E0FBFDAC09
:101E0B0002120FA2AF03AE02120FA290027FEFF0ED
:011E1B0022A4
:1043BA0090022A7401F0E4900233F0A304F0E4902E
:1043CA00022BF0A3F0A3EEF0A3EFF0E4A3F0A3F026
:0743DA00A3EEF0A3EFF022B7
:10431A0090022A7402F0E4900233F0A37402F0E4EB
:10432A0090022BF0A3F0A3EEF0A3EFF0E4A3F0A326
:08433A00F0A3EEF0A3EFF02266
:1043420090022A7403F0E4900233F0A3741CF0E4A8
:1043520090022BF0A3F0A3EEF0A3EFF0E4A3F0A3FE
:08436200F0A3EEF0A3EFF0223E
:10436A0090022A7407F0E4900233F0A37402F0E496
:10437A0090022BF0A3F0A3EEF0A3EFF0E4A3F0A3D6
:08438A00F0A3EEF0A3EFF02216
:1043920090022A7406F0E4900233F0A37402F0E46F
:1043A20090022BF0A3F0A3EEF0A3EFF0E4A3F0A3AE
:0843B200F0A3EEF0A3EFF022EE
:1029F70090022BE07002A3E06003022AA090022A53
:102A0700E014603814605714606724FD6075146023
:102A17007224076003022AA0900233E09002367006
:102A27000B74FFF0E4A3F0A37486800974FFF0A38E
:102A37007450F0E4A3F0A3740AF0805D900242E0C2
:102A4700900236F0900243E0900237F0900244E0A3
:102A5700900238F0900245E0900239F0803B9001F7
:102A6700A0E0FEA3E0FF7C007D1C120FA2AF058053
:102A770008900233E0FF1230A9900235EFF0121AE6
:102A8700D58016900233E0700790023674FF8004F9
:102A9700E4900236F0A3F0A3F090022DE0FEA3E04D
:102AA700FFC390022CE09F90022BE09E500FE4752D
:102AB700F001120FF790023A7401F0805990023139
:102AC700E0FEA3E0FFC3900230E09F90022FE09E5C
:102AD700500EE475F001120FF7E490023AF08036D9
:102AE700E490022FF0A3F090022BF0A3F0900233B2
:102AF700E004F090022AE0FF600D64036009EF64D0
:102B0700076004EFB4060F900234E0FF900233E051
:102B1700C39F4002E4F090023AE0B4010D90023600
:102B2700E0FFA3E0FDA3E0FB8004E4FBFDFF12222E
:022B3700E32297
:0745CC00E4FBFDFF0222E306
:0E458F00900242E0FFA3E0FDA3E0FB0222E366
:103B1B0090029BEEF0A3EFF0A903EDB40615E49031
:103B2B000246F0A3F0A3F090029BE0FEA3E0FF7D22
:103B3B0006802B90028EE0900246F090028DE09072
:103B4B000247F090028CE0900248F0E4900242F0C1
:103B5B00A3F0A3F090029BE0FEA3E0FF7D05121CF7
:0C3B6B007B900269E9F0E4900268F0220F
:1041210090029BEEF0A3EFF0900250EDF090023E72
:10413100EBF090029FE0900240F090029BE0FEA322
:10414100E0FF90025BEEF0A3EFF0900280EEF0A3AF
:03415100EFF0226A
:1044A30090024DE0FFC374239FFFE49400FE90024B
:0E44B3005BF0A3EFF0900280EEF0A3EFF0229A
:1039F30090025BE0FEA3E0FFC3900281E09F900290
:103A030080E09E4043E4F0A3F0900250E004F0E035
:103A1300FF900240E0FED39F5017EEC39401401184
:103A2300900242E0FFA3E0FDA3E0FB1222E37F014B
:103A330022E4FBFDFF1222E390023EE0FF900250DE
:103A4300E0C39F400D7F0122900280E475F00112D4
:053A53000FF77F0022C7
:1039840090025BE0FEA3E0FFC3900281E09F9002FF
:1039940080E09E404DE4F0A3F0900250E004F0E09B
:1039A400FF900240E0FED39F5010EEC39401400A02
:1039B400E4FBFDFF1222E37F012290023EE0FF9030
:1039C4000240E0FED39F5003EE7007E4FBFDFF12BC
:1039D40022E390023EE0FF900250E0C39F400D7F3F
:0F39E4000122900280E475F001120FF77F00229C
:1028A80090018EE075F004A4FFAEF07C007D0A1262
:1028B8000FA2900199EFF0E0FF90018BE08FF0A458
:1028C800FFAEF07C007D64120FA2900193EEF0A39E
:1028D800EFF0D394FFEE9400400890019074FFF05D
:1028E800801B900199E0FF90018BE08FF0A4FFAE70
:1028F800F07C007D64120FA2900190EFF090019996
:10290800E0FF90018CE08FF0A4FFAEF07C007D64C6
:10291800120FA2900195EEF0A3EFF0D394FFEE947E
:1029280000400890019174FFF0801B900199E0FF2E
:1029380090018CE08FF0A4FFAEF07C007D64120F54
:10294800A2900191EFF0900199E0FF90018DE08F46
:10295800F0A4FFAEF07C007D64120FA2900197EE08
:10296800F0A3EFF0D394FFEE940040089001927426
:10297800FFF0801B900199E0FF90018DE08FF0A49B
:10298800FFAEF07C007D64120FA2900192EFF090F0
:10299800018FE0700FA3E0FFA3E0FDA3E0FB12228C
:1029A800E37F012290025BE0FEA3E0FFC390028177
:1029B800E09F900280E09E4029E4F0A3F09002415D
:1029C800E0B4010FE4F0900190E0FFA3E0FDA3E084
:1029D800FB800A9002417401F0E4FBFDFF1222E340
:0F29E800800A900280E475F001120FF77F002241
:103F7A0090029BEEF0A3EFF0900250EDF090023E1B
:103F8A00EBF090029FE0900240F090029BE0FEA3CB
:103F9A00E0FF90025BEEF0A3EFF0900280EEF0A358
:103FAA00EFF0E490023CF0900282F09002A0E090E0
:043FBA000251F0229E
:1033050090025BE0FEA3E0FFC3900281E09F900284
:1033150080E09E50030233B4E4F0A3F0900250E045
:1033250004F090023CE07033900250E0FF900240C0
:10333500E0FED39F500EEEC39401400890023C740A
:1033450001F08007E4FBFDFF1222E390023EE0FF5F
:10335500900250E0D39F40037F012290023CE0643D
:10336500017056900282E0C394074018900251E024
:1033750064017006900282F0800EE4FBFDFF1222CC
:10338500E37F0122900282E0FF1240B5AC07900274
:1033950082E0FF124154AD07900282E0FF12421510
:1033A500AB07AF041222E3900282E004F0800A909A
:0C33B5000280E475F001120FF77F002287
:10214E0090013EE0900252F0EFB4010690013E0283
:10215E002217EFB40206900145022217EFB40306D0
:10216E00900146022217EFB404069001470222178F
:10217E00EFB40506900148022217EFB4060690014F
:10218E0049022217EFB4070590014A807CEFB4088C
:10219E000590014B8073EFB4090590014C806AEFF6
:1021AE00B40A0590014D8061EFB40B0590014E808D
:1021BE0058EFB40C0590014F804FEFB40D05900110
:1021CE00508046EFB40E05900151803DEFB40F05DF
:1021DE009001528034EFB41005900153802BEFB470
:1021EE0011059001548022EFB4120590015580190B
:1021FE00EFB413059001568010EFB41405900157FB
:10220E008007EFB41508900158E0900252F090024A
:10221E0052E0FF6401600EEF64086009EF640F6026
:10222E0004EFB41607E4900242F08063EF6402609C
:10223E000EEF64096009EF64106004EFB4170A90A2
:10224E00024274FFF0E40222DEEF6403606FEF647B
:10225E000A606AEF64116004EFB41802805FEF64E5
:10226E0004600EEF640B6009EF64126004EFB419A2
:10227E000990024274FFF0A3804BEF64056009EFF2
:10228E00640C6004EFB4130E90024274A7F0E4A342
:10229E00F0A374FFF022EF64066009EF640D600492
:1022AE00EFB4140B90024274FFF0A374508016EF3B
:1022BE0064076009EF640E6004EFB4150DE490023C
:1022CE0042F0A374FFF0E4A3F02290024274FFF0F8
:0522DE00A3F0A3F022B3
:1031760090024DE06414700302324290023DE01268
:1031860011D531E90031EF0131F50231F50331F5A1
:103196000431F50531F50631F50831F50931F50A41
:1031A60031F50B32060C32060D32060E31F51732AA
:1031B600061932061A32171C321F1D321720321F0B
:1031C6002132172A321F2B32172E321F2F32333D50
:1031D60032174932174A321F4B32294F31F55C00FC
:1031E6000032421244850245CC12448502458F9036
:1031F600024DE06414604590012A7401F00200005B
:1032060090024DE06414603490012A7401F00229A2
:10321600F71239F3EF601F801A123984EF600280CB
:103226001280131228A8EF60028008800912330565
:0D323600EF600302448590012A7401F0222C
:0D25ED0090029CEDF090029AEEF0A3EFF04A
:1025FA00E490029DF0A907E9C394805004E4F980AD
:10260A000279807D807C0090029AE0FEE97A0024BB
:10261A0000FFEA3E90029EF0A3EFF0ED7003EC6437
:10262A0001602990029EE0FEA3E0F5828E83E49386
:10263A008D828C83F090029DE004F00DBD00010CA8
:10264A0090029EE475F001120FF780CF90029AA3D0
:10265A00E0F9C39480E9500A2480FFE433FCAD0713
:10266A0080037C00FD90029CE08D828C83F09002B6
:10267A009AE0FEA3E0FBF5A6EEFFF5A775AEFFA272
:10268A00AF9205C2AF75C7AA75C755439F01A20588
:10269A0092AFA2AF9205C2AF75C7AA75C75543A537
:1026AA0001A20592AF75AF22A2AF9205C2AF75C75C
:1026BA00AA75C75543A401A20592AFA903E9C39419
:1026CA00805004E4F9800279807C007D80AE018E1E
:1026DA00A68FA7A2AF9205C2AF75C7AA75C7554301
:1026EA009F01A20592AFA2AF9205C2AF75C7AA75A4
:1026FA00C75543A501A20592AF75AF21EDF44C6011
:10270A00238D828C83E0F5AEA2AF9205C2AF75C766
:10271A00AA75C75543A401A20592AF05A60DBD002F
:10272A00010C80D8A2AF9205C2AF75C7AA75C7556A
:10273A0053A5FEA20592AFA2AF9205C2AF75C7AA72
:0A274A0075C755539FFEA20592AF1C
:012754002262
:0445B6008F828E83DF
:0345BA00E493FF88
:0145BD0022DB
:1035550002062FE493A3F8E493A34003F68001F257
:1035650008DFF48029E493A3F85407240CC8C33377
:10357500C4540F4420C8834004F456800146F6DF46
:10358500E4800B0102040810204080902469E47E49
:10359500019360BCA3FF543F30E509541FFEE4933B
:1035A500A360010ECF54C025E060A840B8E493A302
:1035B500FAE493A3F8E493A3C8C582C8CAC583CA2D
:1035C500F0A3C8C582C8CAC583CADFE9DEE780BEE5
:0125EC0000EE
:100E6600E709F608DFFA8046E709F208DFFA803E6E
:100E760088828C83E709F0A3DFFA8032E309F6085B
:100E8600DFFA8078E309F208DFFA807088828C83C3
:100E9600E309F0A3DFFA806489828A83E0A3F60877
:100EA600DFFA805889828A83E0A3F208DFFA804C51
:100EB60080D280FA80C680D4806980F28033801028
:100EC60080A680EA809A80A880DA80E280CA803391
:100ED60089828A83ECFAE493A3C8C582C8CCC58309
:100EE600CCF0A3C8C582C8CCC583CCDFE9DEE780D9
:100EF6000D89828A83E493A3F608DFF9ECFAA9F058
:100F0600EDFB2289828A83ECFAE0A3C8C582C8CCAD
:100F1600C583CCF0A3C8C582C8CCC583CCDFEADEC6
:100F2600E880DB89828A83E493A3F208DFF980CC28
:100F360088F0EF60010E4E60C388F0ED2402B40421
:100F46000050B9F582EB2402B4040050AF232345C8
:060F56008223900EB67329
:100F5C00BB010689828A83E0225002E722BBFE0293
:090F6C00E32289828A83E49322C6
:100F7500BB010CE58229F582E5833AF583E0225031
:100F850006E92582F8E622BBFE06E92582F8E2227B
:0D0F9500E58229F582E5833AF583E4932295
:100FA200BC000BBE0029EF8DF084FFADF022E4CC33
:100FB200F875F008EF2FFFEE33FEEC33FCEE9DECFC
:100FC200984005FCEE9DFE0FD5F0E9E4CEFD22ED42
:100FD200F8F5F0EE8420D21CFEADF075F008EF2F8C
:100FE200FFED33FD4007985006D5F0F222C398FD7D
:050FF2000FD5F0EA221A
:100FF700C5F0F8A3E028F0C5F0F8E5821582700285
:061007001583E038F02221
:10100D00E88FF0A4CC8BF0A42CFCE98EF0A42CFC82
:10101D008AF0EDA42CFCEA8EF0A4CDA8F08BF0A400
:10102D002DCC3825F0FDE98FF0A42CCD35F0FCEB5F
:10103D008EF0A4FEA9F0EB8FF0A4CFC5F02ECD3924
:0F104D00FEE43CFCEAA42DCE35F0FDE43CFC2291
:10105C0075F008758200EF2FFFEE33FECD33CDCC4B
:10106C0033CCC58233C5829BED9AEC99E5829840CE
:10107C000CF582EE9BFEED9AFDEC99FC0FD5F0D6AB
:10108C00E4CEFBE4CDFAE4CCF9A88222B800C1B9D5
:10109C000059BA002DEC8BF084CFCECDFCE5F0CB13
:1010AC00F97818EF2FFFEE33FEED33FDEC33FCEB4C
:1010BC0033FB10D703994004EB99FB0FD8E5E4F907
:1010CC00FA227818EF2FFFEE33FEED33FDEC33FCF4
:1010DC00C933C910D7059BE99A4007EC9BFCE99AE8
:1010EC00F90FD8E0E4C9FAE4CCFB2275F010EF2F2D
:1010FC00FFEE33FEED33FDCC33CCC833C810D7072D
:10110C009BEC9AE899400AED9BFDEC9AFCE899F867
:0E111C000FD5F0DAE4CDFBE4CCFAE4C8F922FA
:103FBE00C2D5E830E70FB2D5E4C39BFBE49AFAE42E
:103FCE0099F9E498F8EC30E717B2D5123FF41210D5
:103FDE0098E4C39BFBE49AFAE499F9E498F8800319
:103FEE0012109830D50DE4C39FFFE49EFEE49DFDB4
:043FFE00E49CFC2221
:10112A00EB9FF5F0EA9E42F0E99D42F0E89C45F01B
:01113A002292
:10113B00E8600FECC313FCED13FDEE13FEEF13FF92
:03114B00D8F122B6
:10114E00E86010ECA2E713FCED13FDEE13FEEF13B7
:04115E00FFD8F022A4
:0C116200E0FCA3E0FDA3E0FEA3E0FF2200
:0C116E00E0F8A3E0F9A3E0FAA3E0FB2204
:0C117A00ECF0A3EDF0A3EEF0A3EFF022E8
:10118600A8828583F0D083D08212119D12119D1200
:10119600119D12119DE473E493A3C583C5F0C58325
:1011A600C8C582C8F0A3C583C5F0C583C8C582C8B3
:0111B6002216
:0C11B700A42582F582E5F03583F5832243
:0911C300E0FBA3E0FAA3E0F9222D
:0911CC00EBF0A3EAF0A3E9F02224
:1011D500D083D082F8E4937012740193700DA3A3A9
:1011E50093F8740193F5828883E4737402936860BD
:0611F500EFA3A3A380DFBD
:1011FB00EF4E6012EF60010EEDBB010B89828A830B
:10120B00F0A3DFFCDEFA2289F05007F709DFFCA917
:0C121B00F022BBFEFCF309DFFCA9F0226E
:00000001FF
