:03000000023426A1
:1034260075C7AA75C75575FD5A75C7AA75C7557567
:10343600FDA5787FE4F6D8FD9000007FFF7E03E4CB
:0C344600F0A3DFFCDEFA75812002348D5B
:103955009002A71212A353B1BF53B2BF53B17F5305
:10396500B27F75985043878053C4F843C4209002B2
:10397500A71212977F407E427D0F7C001211C1C3B2
:1039850074FF9FFF74FF9EFEE49DFDE49CFC780898
:103995001212648FC69002A71212977F407E427D55
:1039A5000F7C001211C1C374FF9FFF8FC543C4086C
:0339B500D2992282
:10450D00C299E4900191F08F99900191E060FA22A7
:103E35009002AB1212A3538EF7438901D28CE4FF93
:103E4500FEFDFC9002AB121297C312125360297546
:103E55008AFCE4F58C308DFDC28D9002AB12128B7D
:103E6500EF24FFFFEE34FFFEED34FFFDEC34FFFCE5
:0B3E75009002AB1212A380C6C28C2288
:103E80009002AF1212A3538EEF438910D28EE4FF3B
:103E9000FEFDFC9002AF121297C3121253602975F7
:103EA0008BEA758DCB308FFDC28F9002AF12128BD3
:103EB000EF24FFFFEE34FFFEED34FFFDEC34FFFC9A
:0B3EC0009002AF1212A380C6C28E2237
:103C67009002B31212A353C9BF53C9DF43C910D27D
:103C7700CAE4FFFEFDFC9002B3121297C31212535F
:103C8700602975CC3075CDF830CFFDC2CF9002B327
:103C970012128BEF24FFFFEE34FFFEED34FFFDEC35
:0E3CA70034FFFC9002B31212A380C6C2CA22E0
:103D03009002B71212A375C40743C408E4FFFEFD73
:103D1300FC9002B7121297C3121253602C75C52C74
:103D230075C6CFE5C430E4FB53C4EF9002B712125B
:103D33008BEF24FFFFEE34FFFEED34FFFDEC34FF89
:0D3D4300FC9002B71212A380C353C4F722F4
:103D50009002BB1212A375C40743C408E4FFFEFD22
:103D6000FC9002BB121297C3121253602C75C5D877
:103D700075C6FFE5C430E4FB53C4EF9002BB1212DA
:103D80008BEF24FFFFEE34FFFEED34FFFDEC34FF3C
:0D3D9000FC9002BB1212A380C353C4F722A3
:1020A300C100C10242018E00004201200000410133
:1020B300970041014F0041011900420125000042F0
:1020C3000193000041014D004101480042015400C9
:1020D30000420117000041019200C10144018A003E
:1020E30000000044011C0000000041019500410173
:1020F30024004401490000000044010C00000000DA
:10210300410189004101910041015300C103410193
:062113009800410190005C
:0200500080FE30
:051D840090029DEFF04C
:101D8900D2C5C2C330C3FDE5BD640860031200506B
:101D9900C2C575BCA4C2C330C3FDE5BD64186003E8
:101DA900120050E4F5BCC2C330C3FDE5BD64286030
:101DB90003120050E4F5BCC2C330C3FDE5BD64287D
:101DC900600312005090029E1212AF00000000E45E
:101DD9007F20FEFDFC90029E121297C312125350EF
:101DE9003390029DE0F5BCC2C330C3FDE5BD642854
:101DF900600312005090029DE0F4F0A312128BEFE1
:101E09002401FFE43EFEE43DFDE43CFC90029E1209
:101E190012A380BBD2C4C2C3D2C5C2C330C3FDE5BD
:101E2900BD64086003120050C2C575BCA4C2C330AA
:101E3900C3FDE5BDB418DDD2C4C2C320C4FDD2C5FB
:101E4900C2C330C3FDE5BD6408600312005075BC10
:101E5900A4C2C5C2C330C3FDE5BD64186003120046
:101E690050E4F5BCC2C330C3FDE5BD64286003126C
:101E79000050E4F5BCC2C330C3FDE5BD642860036E
:101E8900120050D2C5C2C330C3FDE5BD6410600362
:101E9900120050C2C575BCA5C2C330C3FDE5BD64FF
:101EA90040600312005090029E1212AF0000000021
:101EB900E47F1FFEFDFC90029E121297C31212537B
:101EC900503AD2C2C2C330C3FDE5BD6450600312AB
:101ED900005090029DE065BC600312005090029D85
:101EE900E0F4F0A312128BEF2401FFE43EFEE43D7F
:101EF900FDE43CFC90029E1212A380B4C2C2C2C38C
:101F090030C3FDE5BD64586003120050D2C4C2C39A
:031F190020C4FDE4
:011F1C0022A2
:1041C200900151EFF0BF01131244647F807EEE7DB7
:1041D200367C00123C187F010245A4900151E0B4E4
:0B41E2000208E4FF1245A4124464220E
:03000B00020B8C59
:100B8C00C0E0C0F0C083C082C0D075D000C000C02F
:100B9C0001C002C003C004C005C006C007758CFCB0
:100BAC00758A18900129E06401707390012B75F01F
:100BBC0001121120900172E0FFB40111C390012CBD
:100BCC00E0945090012BE0940040538041EFB4022C
:100BDC0011C390012CE0943C90012BE09400403E1A
:100BEC00802C900172E0FFB40311C390012CE094AF
:100BFC002890012BE0940040258013EFB4041FC310
:100C0C0090012CE0941490012BE094004010900182
:100C1C0029E4F090012BF0A3F090012704F090014F
:100C2C002AE064016003020E5C90012D75F0011244
:100C3C00112090011BE4F090023DE0FF7015C39071
:100C4C00012EE0942890012DE094005003020E4AEE
:100C5C00020E44EFB40115C390012EE094279001CD
:100C6C002DE094005003020E4A020E4490023DE027
:100C7C00FFB40215C390012EE0942590012DE09451
:100C8C00005003020E4A020E44EFB40315C3900148
:100C9C002EE0942390012DE094005003020E4A02A2
:100CAC000E4490023DE0FFB40415C390012EE09475
:100CBC002190012DE094005003020E4A020E44EFE5
:100CCC00B40515C390012EE0941F90012DE0940003
:100CDC005003020E4A020E4490023DE0FFB406158A
:100CEC00C390012EE0941D90012DE094005003025E
:100CFC000E4A020E44EFB40715C390012EE0941B6C
:100D0C0090012DE094005003020E4A020E44900212
:100D1C003DE0FFB40815C390012EE0941990012D0D
:100D2C00E094005003020E4A020E44EFB40915C3BE
:100D3C0090012EE0941790012DE094005003020EC8
:100D4C004A020E4490023DE0FFB40A15C390012EF6
:100D5C00E0941590012DE094005003020E4A020E0F
:100D6C0044EFB40B15C390012EE0941390012DE0C9
:100D7C0094005003020E4A020E4490023DE0FFB470
:100D8C000C15C390012EE0941190012DE0940050AD
:100D9C0003020E4A020E44EFB40D15C390012EE06F
:100DAC00940F90012DE094005003020E4A020E4461
:100DBC0090023DE0FFB40E11C390012EE0940D9013
:100DCC00012DE094004077806FEFB40F11C39001B8
:100DDC002EE0940B90012DE094004062805A90021A
:100DEC003DE0FFB41011C390012EE0940990012D49
:100DFC00E0940040498041EFB41111C390012EE002
:100E0C00940790012DE094004034802C90023DE03A
:100E1C00FFB41211C390012EE0940590012DE094C3
:100E2C0000401B8013EFB41315C390012EE0940304
:100E3C0090012DE09400400690011B7401F090018C
:100E4C001BE0B4010BE4F090012DF0A3F0122D5F28
:100E5C0030022890018EE475F001121120900120CF
:100E6C00E0FEA3E0FFC390018FE09F90018EE09E17
:100E7C004009E4F0A3F090019704F0900119E0B45C
:100E8C000128900125E475F001121120900193E0E6
:100E9C00FEA3E0FFC3900126E09F900125E09E4059
:100EAC0009E4F0A3F090014D04F0900148E0B40186
:100EBC0028900154E475F001121120900117E0FE06
:100ECC00A3E0FFC3900155E09F900154E09E4009C0
:100EDC00E4F0A3F090019204F030013B90018A12EF
:100EEC00128BEF2401FFE43EFEE43DFDE43CFC905C
:100EFC00018A1212A390011C12128B90018A1212F9
:100F0C0097C3121253401090018A1212AF000000C6
:100F1C00009001957401F0900124E0B4014A3097DF
:100F2C003D90014912128BEF2401FFE43EFEE43D9B
:100F3C00FDE43CFC9001491212A390010C12128B9F
:100F4C00900149121297C3121253401C900149127E
:100F5C0012AF000000009001897401F0800A90012A
:100F6C00491212AF00000000D007D006D005D00403
:100F7C00D003D002D001D000D0D0D082D083D0F01A
:030F8C00D0E03280
:063D9D009002861212A341
:103DA300E490028AF0A3F020022B90018EF0A3F09E
:103DB3007FE87E03FDFC900286121297121136E40F
:103DC3007BE87A03F9F81211C1900120EEF0A3EF1A
:103DD300F0D202800874FF90028AF0A3F090028A66
:053DE300E0FEA3E0FF7B
:013DE80022B8
:063B72009002861212A36E
:103B7800E490028AF0A3F0900119E0702F900125DB
:103B8800F0A3F07FE87E03FDFC90028612129712E4
:103B98001136E47BE87A03F9F81211C1900193EE2B
:103BA800F0A3EFF09001197401F0800874FF9002FF
:0C3BB8008AF0A3F090028AE0FEA3E0FF78
:013BC40022DE
:1044CB00E4900119F0900125F0A3F0900193F0A373
:0644DB00F090014DF022FB
:063BC5009002861212A31B
:103BCB00E490028AF0A3F0900148E0702F9001542A
:103BDB00F0A3F07FE87E03FDFC9002861212971291
:103BEB001136E47BE87A03F9F81211C1900117EE54
:103BFB00F0A3EFF09001487401F0800874FF90027D
:0C3C0B008AF0A3F090028AE0FEA3E0FF24
:013C1700228A
:063C18009002861212A3C7
:103C1E00E490028AF0A3F020012E90018A1212AFD6
:103C2E0000000000E47FE87E03FDFC900286121285
:103C3E0097121136E47BE87A03F9F81211C190015C
:103C4E001C1212A3D201800874FF90028AF0A3F016
:083C5E0090028AE0FEA3E0FFE2
:013C6600223B
:10446400C20190018A1212AF0000000090011C12D8
:0C44740012AF00000000E4900195F0225F
:063A74009002861212A36D
:103A7A00E490028AF0A3F0900124E07032900149A8
:103A8A001212AF00000000E47FE87E03FDFC900202
:103A9A0086121297121136E47BE87A03F9F81211AA
:103AAA00C190010C1212A39001247401F0800874D1
:0F3ABA00FF90028AF0A3F090028AE0FEA3E0FFE3
:013AC90022DA
:1043CB00E4900124F09001491212AF00000000901C
:0F43DB00010C1212AF00000000E4900189F022E3
:1044E100E4900148F0900154F0A3F0900117F0A37B
:0644F100F0900192F022A0
:1044800043B710C2BC53B7FDD2B953F7FD43EF0297
:0C44900053B7BFD2BE53F7EF43EF10222A
:1041ED005389F0438901538EF7758CFC758A18D26B
:1041FD00A9D2AFD28C7F887E137D007C00123D9DAD
:0B420D007F107E277D007C00023A74C9
:1034D200A2AF9204C2AF75C7AA75C75553A37FA204
:1034E2000492AFA2AF9204C2AF75C7AA75C7555373
:1034F200A3FBA20492AFA2AF9204C2AF75C7AA7592
:10350200C75553A3F7A20492AFA2AF9204C2AF75FC
:10351200C7AA75C75553A3FDA20492AFA2AF9204E6
:10352200C2AF75C7AA75C75543A310A20492AFA232
:10353200AF9204C2AF75C7AA75C75543A320A204B0
:1035420092AFA2AF9204C2AF75C7AA75C75543A383
:1035520004A20492AFA2AF9204C2AF75C7AA75C704
:093562005543A380A20492AF229C
:03005300023F5316
:103F5300C0D0A2AF9204C2AF75C7AA75C75553AA02
:103F6300DFA20492AFA2AF9204C2AF75C7AA75C70E
:103F73005543AA40A20492AFA2AF9204C2AF75C741
:0E3F8300AA75C75543AA80A20492AFD0D032CF
:102C6400A2AF9204C2AF75C7AA75C755439F01A20C
:102C74000492AF75A604E4F5A775AE5075AFE1A252
:102C8400AF9204C2AF75C7AA75C75543A504A20481
:102C940092AFA2AF9204C2AF75C7AA75C75543A439
:102CA40001A20492AFE59F20E6FBA2AF9204C2AF5B
:102CB40075C7AA75C75553A5FBA20492AFA2AF92DC
:102CC40004C2AF75C7AA75C755539FFEA20492AF3D
:102CD400A2AF9204C2AF75C7AA75C75553AA7FA203
:102CE4000492AFA2AF9204C2AF75C7AA75C7554389
:102CF400AA04A20492AFA2AF9204C2AF75C7AA7588
:102D0400C75543AA02A20492AFA2AF9204C2AF7500
:102D1400C7AA75C75543AA01A20492AFA2AF9204F1
:102D2400C2AF75C7AA75C75553AADFA20492AFA252
:102D3400AF9204C2AF75C7AA75C75553AAEFA204D0
:102D440092AF439B10D2AFA2AF9204C2AF75C7AA91
:0B2D540075C75543AA80A20492AF226D
:10075800124480122C647F007EE112381012379EFA
:1007680012453D1234D2E4900153F0124360123C1A
:10077800B512369112426E1241ED7F5612450D7F29
:100788003112450D1244F71226319001737401F0AD
:10079800A37410F0A37401F0900196F0A2AF920434
:1007A800C2AF75C7AA75C75543AA40A20492AFA2A3
:1007B800AF9204C2AF75C7AA75C75543AA80A204F1
:1007C80092AF900127E0B40105E4F0122D5F2000FC
:1007D80003020AF3C200C203900006E0FFB4011747
:1007E800A3E0B48E12E4900172F090023D7414F00C
:1007F800E490012AF0D203EF64FA6008900006E062
:1008080064FB707C900006E0B4FB08900152740110
:10081800F08005E4900152F090000AE0FF64616006
:100828000FEF6462600AEF64636005EF6464704E02
:10083800900172E0704890000AE0B461099001727A
:100848007401F0FB803190000AE0B4620A900172F2
:100858007402F07B01802090000AE0B4630A9001E2
:10086800727403F07B01800F90000AE0B4640F906B
:1008780001727404F07B017A007904121350D203D8
:10088800200371D20390000AE0FF6461600FEF64F7
:1008980062600AEF64636005EF64647057900172E8
:1008A800E0704AC20390000AE0FFB4610B90017245
:1008B8007401F090023C8030EFB4620C90017274C5
:1008C80002F090023C148020EFB4630D9001727422
:1008D80003F090023C7401800FEFB464179001722A
:1008E8007404F090023C7401F0C2038007E49002A3
:1008F8003CF0D203900004E07F00FE900122F0A3B8
:10090800EFF0900005E0FDEDFF900122EEF0A3EF7F
:10091800F0E490010BF0900122E0C4135407FF7E2D
:1009280000900173E06F7001EE6005EF6407703CA2
:10093800900122E0FEA3E07807CEC313CE13D8F9C6
:100948007E00543FFF900174E06F7001EE6005EF88
:10095800643F70187E00900123E0547FFF9001757A
:10096800E06F7001EE600BEF647F600690010B741E
:1009780001F0300303020AF390023CE064016003D3
:10098800020AF3900232E0900236F0900233E090CF
:100998000237F0900234E0900238F0900008E090BE
:1009A800023AF0900009E090023BF090023AE0FF32
:1009B8001228C090000BE0FF7461D39F500CEF9495
:1009C800745007EF249F90023DF0900006E0B401B8
:1009D8001590010BE06003020AF37B017A007904A9
:1009E800123156020AF3900006E064027064900027
:1009F8000DE0900176F090000EE0900177F0E0C3F2
:100A08001390011AF0900135E0FFC394014017904C
:100A1800011AE0FEEFD39E500DEE04FF900135E081
:100A2800FEC3EF9E800B90011AE0FF900135E0C3F2
:100A38009F90013AF090011AE090013DF090010B6F
:100A4800E06003020AF37B017A007904124138025C
:100A58000AF3900006E06403706390000DE09001D3
:100A680076F090000EE0900177F0900176E0C313E5
:100A780090011AF0900136E0FFC3940140179001ED
:100A88001AE0FEEFD39E500DEE04FF900136E0FE13
:100A9800C3EF9E800B90011AE0FF900136E0C39FE0
:100AA80090013BF090011AE090013CF090010BE0BE
:100AB80070397B017A007904123ACA802E900006B8
:100AC800E0B4071190010BE070217B017A007904F2
:100AD8001215B88016900006E0B4060F90010BE0DE
:100AE80070097B017A007904124166900197E0B49D
:100AF8000118E4F01232C190029AE0B40107E4F060
:100B0800122FD8800543E101D2EE900297E0B4019C
:100B180005E4F0122B3112459EEF7014900190E01D
:100B280004F0E0C394644008E4F0FBFDFF121F1DCD
:100B380090014FE0B40105E4F012454C90014DE0FE
:100B4800B40105E4F0124409900192E0B40105E40F
:100B5800F0120003900195E0B40107E4F07F02125F
:100B680041C2900189E0640160030207A4F0A2AFCA
:100B78009204C2AF75C7AA75C755439F80A2049255
:040B8800AF0207A40D
:1044F700E4900127F0A3F0A3F0A3F0A3F0A3F090BA
:06450700012FF0A3F022D9
:10421800900289EFF0124590900289E0FF12180889
:10422800E490012BF0A3F090012AF090012DF0A367
:0B423800F0900127F090012904F02213
:01005200228B
:10379E0053B3DF43B420D295A2AF9204C2AF75C724
:1037AE00AA75C755439780A20492AFA2AF9204C2E6
:1037BE00AF75C7AA75C755439740A20492AFE59659
:1037CE0030E3FBA2AF9204C2AF75C7AA75C75553BB
:1037DE0097DFA20492AFA2AF9204C2AF75C7AA75CB
:1037EE00C7555396FBA20492AFA2AF9204C2AF7517
:1037FE00C7AA75C755439602A20492AFE59720E07B
:02380E00FB229B
:1028C000EFB40108E4900232F0022972EFB4020B77
:1028D000E4900232F0A37492022981EFB4030BE476
:1028E000900232F0A374FF0229E8EFB4040C9002C6
:1028F00032740AF0A3742E022981EFB4050B900202
:1029000032740AF0A374198078EFB4060AE49002D6
:1029100032F0A37450806AEFB4070B900232741E39
:10292000F0A374C8805BEFB4080B90023274FFF020
:10293000E4A30229E8EFB4090C90023274FFF0A37B
:1029400074500229F7EFB40A0C900232742DF0A3F0
:1029500074DD0229F7EFB40B0E90023274FFF0E43D
:10296000A3F0A37486F022EFB40C0A90023274FF35
:10297000F0E4A3800CEFB40D0E90023274A7F0E4E3
:10298000A3F0A374FFF022EFB40E0F900232742D67
:10299000F0A374DDF0A37499F022EFB40F0F90024E
:1029A0003274FFF0A374BBF0A37455F022EFB4109F
:1029B0000F900232740AF0A374FFF0A3742EF02279
:1029C000EFB4110AE4900232F0A374FF8029EFB44F
:1029D000120B900232747DF0A374FF801AEFB413CF
:1029E0000B90023274FFF0A3F0A3F022EFB4140BAB
:0C29F00090023274FFF0A3F0E4A3F02288
:1031560090000312109E1212FE3193013197023134
:103166009B03319F0431A30531A70631AB0731AF6D
:103176000B31C30C31C70D31CB0E31CF1831D319FA
:1031860031D81C31DF1D31B91F0000320BE4FF803E
:10319600717F01806D7F0280697F0380657F0D806E
:1031A600617F0C805D7F0E80599001967401F07FDF
:1031B60017804F9001967402F07F1780457F0B8031
:1031C600417F06803D7F0A80397F0280027F0102AF
:1031D60041C21233747F01802990000DE0FF9001F7
:1031E60042E0B5071190000EE0FF900143E0B507FD
:1031F60005123374800A90023274FFF0A3F0A3F034
:063206007F0112421822B4
:104138009002861212F59002861212EC9000031279
:10414800109EB401047F1C80119002861212EC901C
:0E415800000312109EB404057F1D12421822AF
:101350009002861212F59002861212EC9000091289
:10136000109E900176F090000A12109E900177F086
:1013700020970B900152E0640160030215B7E490DE
:101380000152F09002861212EC90000712109EFF9C
:10139000D36480F874616480985010EF648094F492
:1013A0005009EF249F90023DF0800690023D74109A
:1013B000F0121085FFFD3395E0FCEDF44C90013503
:1013C0007003F08002EFF0900135E0FD7F017E4771
:1013D0001222271243EA9002861212EC90000112A8
:1013E000109EFFFD3395E0FCEDF44C900136700348
:1013F000F08002EFF0900136E0FD7F027E4712227E
:10140000271243EA9002861212EC90000312109EFB
:10141000FFFD3395E0FCEDF44C9001377003F08054
:1014200002EFF0900137E0FD7F037E471222271282
:1014300043EA9002861212EC90000412109EFFFD07
:101440003395E0FCEDF44C9001387003F08002EF2E
:10145000F0900138E0FD7F047E471222271243EA14
:101460009002861212EC90000512109EFFFD33953B
:10147000E0FCEDF44C9001397003F08002EFF09045
:101480000139E0FD7F057E471222271243EA9002D0
:10149000861212EC90000B12109EFFFD3395E0FCBB
:1014A000EDF44C90013E7003F08002EFF090013EAD
:1014B000E0FD7F067E471222271243EA9002861241
:1014C00012EC90000C12109EFFFD3395E0FCEDF441
:1014D0004C90013F7003F08002EFF090013FE0FD7F
:1014E0007F077E471222271243EA9002861212ECEF
:1014F00090000D12109EFFFD3395E0FCEDF44C9032
:1015000001427003F08002EFF0900142E0FD7F0A9B
:101510007E471222271243EA9002861212EC9000B4
:101520000E12109EFFFD3395E0FCEDF44C9001404F
:101530007003F08002EFF0900140E0FD7F087E47ED
:101540001222271243EA9002861212EC90000F1228
:10155000109EFFFD3395E0FCEDF44C9001417003CB
:10156000F08002EFF0900141E0FD7F097E471222FA
:10157000271243EA9002861212EC90001012109E7D
:10158000FFFD3395E0FCEDF44C9001437003F080D7
:1015900002EFF0900143E0FD7F0B7E4712222712FD
:1015A00043EA7D637F0C7E471222271243EA7BFFCA
:0815B0007DFF7FFF121F1D22C9
:102631007F017E47124581EF7F00FEC006C0077F04
:10264100027E47124581EFFDD0E02DFED0E034003F
:10265100900110F0A3CEF07F037E47124581EF7FFA
:1026610000FEC006C0077F047E47124581EFFDD002
:10267100E02DFED0E03400900112F0A3CEF09001E5
:1026810010E0FCA3E0FDEC900135F0EDA3F090012A
:1026910012E0FCA3E0FDEC900137F0EDA3F07F0523
:1026A1007E47124581EF7F00FEC006C0077F067E90
:1026B10047124581EFFDD0E02DFED0E034009001BE
:1026C10010F0A3CEF07F077E47124581EF7F00FE19
:1026D100C006C0077F087E47124581EFFDD0E02D7F
:1026E100FED0E03400900112F0A3CEF0900110E092
:1026F100FCA3E0FDEC900139F0ED90013EF090017A
:1027010012E0FCA3E0FDEC90013FF0EDA3F07F09A6
:102711007E47124581EF7F00FEC006C0077F0A7E1B
:1027210047124581EFFDD0E02DFED0E0340090014D
:1027310010F0A3CEF07F0B7E47124581EF7F00FEA4
:10274100C006C0077F0B7E47124581EFFDD0E02D0B
:10275100FED0E03400900112F0A3CEF0900110E021
:10276100FCA3E0FDEC900141F0EDA3F0900112E03B
:0D277100FCA3E0FDEC900143F0EDA3F0228D
:1015B8009002861212F590013EE0900116F090001C
:1015C8007512109EB41408900138E0900116F0903E
:1015D8000116E0FFC394015003021807EFD39415D6
:1015E80040030218079002861212EC900116E0756B
:1015F800F0059000071212E012109E900179F09009
:1016080002861212EC75F005EF9000081212E01233
:10161800109E90017AF09002861212EC900116E06A
:1016280075F0059000091212E012109E90017BF0EF
:101638009002861212EC75F005EF90000A1212E083
:1016480012109E90017DF09002861212EC90011605
:10165800E075F00590000B1212E012109E90017CCC
:10166800F0A3E0FFB4010CE490023DF090017DF09E
:10167800021802EFD39401400DEF940C5008E49047
:10168800023DF0021802EFC3940C400EEF9418507C
:101698000990023D7401F0021802EFC39418400E3D
:1016A800EF9424500990023D7402F0021802EFC32F
:1016B8009424400EEF9430500990023D7403F002D8
:1016C8001802EFC39430400EEF943C500990023D4D
:1016D8007404F0021802EFC3943C400EEF94485093
:1016E8000990023D7405F0021802EFC39448400EB9
:1016F800EF9454500990023D7406F0021802EFC3AB
:101708009454400EEF9460500990023D7407F00223
:101718001802EFC39460400EEF946C500990023D9C
:101728007408F0021802EFC3946C400EEF947850DE
:101738000990023D7409F0021802EFC39478400E34
:10174800EF9484500990023D740AF0021802EFC326
:101758009484400EEF9490500990023D740BF0026F
:101768001802EFC39490400EEF949C500990023DEC
:10177800740CF0021802EFC3949C400DEF94A8502B
:101788000890023D740DF08071EFC394A8400DEFEE
:1017980094B4500890023D740EF0805EEFC394B488
:1017A800400DEF94C0500890023D740FF0804BEF4D
:1017B800C394C0400DEF94CC500890023D7410F0D3
:1017C8008038EFC394CC400DEF94D8500890023D78
:1017D8007411F08025EFC394D8400DEF94E45008BD
:1017E80090023D7412F08012EFC394E4400CEFD3E2
:1017F80094FF500690023D7413F07F801242182225
:1043EA00E490014EF0E4900150F0900150E004F0A6
:0F43FA00E0B4FAF690014EE004F0E0B48CE72254
:104166009002861212F59002861212EC900003124B
:10417600109EB40B047F7880119002861212EC9088
:0E418600000312109EB40C057F79124218221D
:103ACA009002861212F59002861212EC90000312EE
:103ADA00109EB419047F3680379002861212EC9039
:103AEA00000312109EB425047F3A802490028612A5
:103AFA0012EC90000312109EB428047F3B801190B0
:103B0A0002861212EC90000312109EB43A057F410D
:043B1A001242182219
:1021190054020400C00122022C039B04070D2E1156
:102129000A295632923BEB606801990500060007BF
:102139007108B0090E0A000B000C730E130F101072
:102149008412E013001415157F16001700180119E1
:10215900001A001BA41C011D011E501F8120032110
:102169008422002380241925002600278028AC2AF0
:10217900532BD42C402D492EFF2F503038310033AA
:10218900FA34003500360037C0380039003A203CAF
:03219900033D0003
:10449C00123B1E7F47124568EF54E02408FFE434BA
:0744AC0047FE1241107F01E1
:0144B30022E6
:100026007F47124568EF54E02410FFE43447FE0290
:02003600411077
:10003E007F47124568EF54E02402FFE43447FE0286
:02004E0041105F
:074589007FFF7E420241109A
:103B1E0012002612003EE4900287F0900287E0FF2A
:103B2E00C394095015EF25E02404F582E434021203
:103B3E004109900287E004F080E1E4900287F09062
:103B4E000287E0FFC394345015EF25E02499F582E7
:103B5E00E43401124109900287E004F080E112453D
:043B6E008902003E8A
:07410900F583E0FEA3E0FFD7
:1041100053B3EF53B4EFC293C2907D10C293EE300D
:10412000E704D2948002C294D293EF25E0FFEE33ED
:07413000FEDDE9C293D2900D
:014137002265
:0C456800EF2480FF1243A8124243D290BF
:014574002224
:1043A800C29453B3EF53B4EFC293C2907E08C29342
:1043B800EF30E704D2948002C294D293EF25E0FF55
:0243C800DEEC29
:0143CA0022D0
:10424300E4FFC294C29043B31053B4EF7E08C29309
:10425300EF25E0FFD2933094034401FFDEF0C293D5
:0A42630053B3EF53B4EFD290C294AE
:01426D00222E
:1043600053B3F753B4F753B3FE53B4FE53B3EF5301
:10437000B4EFC293C290C2949002037401F0123D54
:04438000E902449C6E
:102E3A00E4900287F0A3F0900287E0FEA3E0FFC3CC
:102E4A009409EE64809480504FEF25E0FFEE33FE44
:102E5A0074042FF58274023EF583E0FF12456890F0
:102E6A000289EFF0FD900288E025E0FF900287E0FA
:102E7A0033FE74042FF58274023EF583A3E06D706D
:102E8A0001E46008900201E4F0A304F0900287E4F0
:102E9A0075F001121120809FE4900287F0A3F09050
:102EAA000287E0FEA3E0FFC39434EE64809480506E
:102EBA004FEF25E0FFEE33FE74992FF58274013E41
:102ECA00F583E0FF124568900289EFF0FD900288D1
:102EDA00E025E0FF900287E033FE74992FF58274B3
:102EEA00013EF583A3E06D7001E46008900201E4FD
:102EFA00F0A304F0900287E475F001121120809F7C
:012F0A0022A4
:103DE90012002612003E7F007E3F1241107F007EA6
:103DF900401241107F007E411241107F007E421225
:103E090041107F007E431241107F007E4412411011
:103E19007F007E451241107F047E461241107F00CB
:0C3E29007E471241107F007E4F024110C6
:1032C100E4900286F0900153E0700F124360123DCA
:1032D100E912449C9001537401F07F3F12456890BC
:1032E1000286EFF06008900201E4F0A304F07F4051
:1032F100124568900286EFF06008900201E4F0A3A5
:1033010004F07F41124568900286EFF06008900258
:1033110001E4F0A304F07F43124568900286EFF0C8
:103321006008900201E4F0A304F07F441245689024
:103331000286EFF06008900201E4F0A304F07F46FA
:10334100124568900286EFF064046008900201E47F
:10335100F0A304F0122E3A900201E07004A3E0649D
:1033610001700F900201F0A3F0124360123DE912C7
:02337100449C7A
:013373002237
:0D219C00410000004100010042000200006F
:10381000900286EEF0A3EFF053B1BF53B2BF53B1A5
:103820007F53B27F75985243878053C4F843C420B6
:10383000900286E0FEA3E0FBAA06E4F9F87F407E52
:10384000427D0FFC123F0FC374FF9FFF74FF9EFE6B
:10385000E49DFDE49CFC78081212778FC6900286E6
:10386000E0FEA3E0FBAA06E4F9F87F407E427D0F6C
:10387000FC123F0FC374FF9FFF8FC543C408D2AC37
:013880002225
:0F453D0053C4F775C6FF75C5F343C408D299225E
:030023000229FCB3
:1029FC00C0E0C0F0C083C082C0D075D000C000C0A1
:102A0C0001C002C003C004C005C006C00790008806
:102A1C00E4F0209803022B0BC298E599F0E07003C8
:102A2C00022B0B900086F0900000E0FF70159000D8
:102A3C0086E0900000B45A067401F0022B0BE4F00F
:102A4C00022B0BEFB40115900086E0900000B4A5AA
:102A5C00067402F0022B0BE4F0022B0B900000E04A
:102A6C00B40215900086E0900000B4C3067403F025
:102A7C00022B0BE4F0022B0B900001E004F0E0FFC2
:102A8C00D3947F5021900088E0FE900002E0FCA3DC
:102A9C00E02489F58274003CF583EEF0900002E4AA
:102AAC0075F001121120EF647F7054900106E06400
:102ABC00F07030900000F0900002F0A3F090000154
:102ACC00F078047C007D017B017A007989FE7F829D
:102ADC0012105F12459EEF6002D2007E007F827D55
:102AEC00008013900002E4F0A3F0900001F090003D
:102AFC0000F0FE7F82FD7B017A007989121324306D
:102B0C009908C2999001917401F0D007D006D005B4
:102B1C00D004D003D002D001D000D0D0D082D0834A
:052B2C00D0F0D0E03202
:103F9100E49002C1F0EFC4540FFEEF540FFDD3942F
:103FA10009ED50052430F0800624579002C1F0EE4F
:103FB100D39409EE50052430FC80032457FCAF0450
:0B3FC10012450D9002C1E0FF02450D0B
:0821A9004102C0004102BF0128
:103CB50053B3DF53B4DFD29543B32053B4DF439BF3
:103CC50002D2AF53B3FB53B4FBC29243B30453B414
:103CD500FB53B1EF53B2EFD284439B02D2AF53B340
:103CE5007F53B47FC29743B38053B47F43E9014305
:0E3CF500E98043EA8053EB7F439B02D2AF226B
:03003B0002371C6D
:10371C00C0E0C0F0C083C082C0D075D000C000C073
:10372C0001C002C003C004C005C006C007E5ECB46C
:10373C000102801AE5ECB404028013E5ECB410022B
:10374C00800CE5ECB420028005E5ECB4400575EC8A
:10375C00008024E5EC6480701EF5ECE5A230E705F2
:10376C0053A27F8012900130E0700C12459EEF60E6
:10377C000690014F7401F0D007D006D005D004D0CC
:10378C0003D002D001D000D0D0D082D083D0F0D0E2
:02379C00E03219
:104409001244CB209718123602900148E0700F90A1
:0F44190002C004F07F2CFE7D007C00123BC52208
:08000300E49002C0F00244E1A8
:103602009002C2E0640170030236909002C0E0644E
:1036120001607B12459EEF6075900198E014602274
:1036220014603614604B2403705290023274FFF01F
:10363200A3F0A3F0A3740AF09001727402F07F0168
:10364200803790023274FFF0A3F0A3F0A3740AF063
:1036520090023D14F07F0D802090023274FFF0A39F
:10366200F0A3F0A3740AF090023D7413F07F0D8072
:10367200089001727402F0E4FF124218900198E07F
:0F368200C394034003E4F022900198E004F02287
:0E454C001244CB7F147E007D007C00023B7287
:1021B1004102800041027F0041027E004102810014
:1021C10041027D0041027C0041027B0041027A0014
:1021D10044027600000000420272000042028400C4
:0B21E100004202820000420274000075
:1036910053B1FE53B2FE53B1FD53B2FD53B1F753D3
:1036A100B2F753B1DF53B2DF43DE0843DE1043DE2E
:1036B10020A2AF9204C2AF75C7AA75C75543910145
:1036C10043C60475C7AA75C7555391FEA20492AFAC
:1036D10053DF3F43DF0353DFFB75D10775D9CFE4D8
:1036E100F5D4F5DCF5D5F5DDA2AF9204C2AF75C70F
:1036F100AA75C755439101A20492AFF5C4F5CCF563
:10370100C5F5CDA2AF9204C2AF75C7AA75C755530F
:0B37110091FEA20492AFD2DED2DF22B4
:101F1D00900290EDF0A3EBF0AA079002761212AFAB
:101F2D0000000000E4900272F0A3F0900284F0A390
:101F3D00F0900282F0A3F0900274F0A3F090027A78
:101F4D00F0EAB4FF1A900290E0B4FF13A3E0B4FFDF
:101F5D000EE4FA900290F0A3F090027A74D8F0900B
:101F6D000280EAF0900290E0FF90027FF0900291E3
:101F7D00E0FE90027EF090027AE0900281F09002F5
:101F8D007DEAF090027CEFF090027BEEF0AFD1EFA6
:101F9D007F00FEE5D97C0060047D0180027D00EEAE
:101FAD004CFEEF4DFFE4FCFD9002761212A3AF0242
:101FBD00E4FCFDFE900276121297121136E47BFFBF
:101FCD00FAF9F81211C1900272EEF0A3EFF090023F
:101FDD0090E0FFE4FCFDFE9002761212971211368E
:101FED00E47BFFFAF9F81211C1900284EEF0A3EF31
:101FFD00F0900291E0FFE4FCFDFE90027612129744
:10200D00121136E47BFFFAF9F81211C1900282EE3B
:10201D00F0A3EFF090027AE0FFE4FCFDFE90027673
:10202D00121297121136E47BFFFAF9F81211C190D2
:10203D000274EEF0A3EFF0C2DE900272E0FCA3E0BA
:10204D00FDECF5D4EDF5DCA3E0FCA3E0FDECF5D55E
:10205D00EDF5DDA2AF9204C2AF75C7AA75C75543A2
:10206D009101A20492AF900282E0FCA3E0FDECF599
:10207D00C4EDF5CCA3E0FCA3E0FDECF5C5EDF5CD8D
:10208D00A2AF9204C2AF75C7AA75C7555391FEA2F0
:06209D000492AFD2DE2226
:1021EC004102970041029800420292000042029B79
:0F21FC00000042029400004102990041029A0043
:10426E0053B3FD53B4FDC29153E8F043E80743B393
:10427E000253B4FDE4F5F643F68043E101D2AED22B
:0B428E00AF90029604F090029AF0221C
:03005B0002000E92
:10000E00C0E0C083C082C2EF9002977401F0D0822C
:05001E00D083D0E032A8
:102FD800C2EFE4900297F0023092900297E0B401B9
:102FE800F9E4F0AFC3EF75F010A4FFE5F0540FFE5D
:102FF800E5C2540FFDEF4DFF900292EEF0A3EFF003
:1030080053E1FE900299E004F0900292E0FEA3E002
:10301800FFA3EE8FF0121120900299E0C3940340B1
:1030280069E4F0900294E0FEA3E0FF7C007D0312C7
:1030380010CB900294EEF0A3EFF090029BEEF0A379
:10304800EFF0E4900294F0A3F0C3EF9483EE940AB7
:103058005012E4A3F090029804F090017204F0E496
:10306800FF02421890029BE0FEA3E0FFC39483EEA8
:10307800940A400FEF9435EE940D50079002967421
:1030880001F0229002967402F02243E101D2EE028E
:023098002FE225
:102B3100900298E06003022C60AFC3EF75F010A41F
:102B4100FFE5F0540FFEE5C2540FFDEF4DFF90027B
:102B510092EEF0A3EFF053E1FE90022BE06003024E
:102B61002C63900280E06003022C6390027FE0609E
:102B710003022C6390027EE06003022C63900281C9
:102B8100E06003022C63D390029CE0940090029BCE
:102B9100E094005022E4900299F0E004F090029257
:102BA100E0FEA3E0FF90029BEEF0A3EFF090029411
:102BB100EEF0A3EFF0805490012FE0D39400400594
:102BC100E014F08046900299E004F0900292E0FE59
:102BD100A3E0FFA3EE8FF0121120900299E0C394BD
:102BE100034028E4F0900294E0FEA3E0FF7C007D26
:102BF100031210CB900294EEF0A3EFF090029BEE43
:102C0100F0A3EFF0E4900294F0A3F0900299E0D3E6
:102C110094034002E4F0C390029CE094AC90029BC8
:102C2100E0940A5014E4900296F090029804F09017
:102C3100017204F0E4FF02421890029BE0FEA3E05F
:102C4100FFC394ACEE940A400FEF946AEE940E50D9
:102C5100079002967401F0229002967402F02253BA
:032C6100E1FE226F
:06459E00900296E0FF22EE
:0645A4009002C2EFF022BC
:10180800EF1212FE186100186401187B0218840395
:10181800189B0418A70518B70618C80818D209187D
:101828006B0A18E20B19110C19000D19030E18F2A6
:101838000F191F17194219192E1A19561C195D1D4F
:1018480019993619B83A19DB3B1A0E4119877819D4
:10185800907919788000001A3C021A1F90022B74A4
:1018680001F0227D017F647E0012003890022B7403
:101878000AF02290022B7402F00219FE90022B74D7
:1018880003F0E490028EF0A3F07B64FA7D647F1489
:10189800021A0B90022B7404F0E4FB7D05800A9079
:1018A800022B7405F0E4FB7D067F64FE0239B890D4
:1018B800022B7406F07B017D057F647E00023A18D6
:1018C80090022B7408F0E4FB800990022B7409F055
:1018D8007B03E4FD7F64FE02320C7D017F647E00A1
:1018E80012457590022B740BF0227F0F7E00124375
:1018F8008490022B740FF022021A2F7F0F7E0012A1
:10190800429990022B740EF0227F0F7E001242C182
:1019180090022B740CF022E4FD7F32FE12356B909E
:10192800022B7417F02290023D7410F07F0B7E009A
:1019380012431190022B7419F02290023D7410F09A
:101948007F037E001242E990022B741AF022900263
:101958002B741C800590022B741DF0900177E0FB1E
:10196800900135E090028EF0E4FD7F0AFE0240729D
:1019780090022F7401F090022B744FF002444690AD
:10198800022B744CF002451D90022B744DF0024559
:101998002D90022B743DF0900176E0FB900136E02B
:1019A80090028EF0A37401F0E4FD7F0AFE023ECBA4
:1019B800900176E0FF900136E0FED39F5003EE7071
:1019C80002805490022B7401F07E00900136E0FDF5
:1019D8000244B4900176E0FF900136E0FED39F50B8
:1019E80003EE7002803190022B7402F07E009001A9
:1019F80036E0FD1244B4E490028EF0A3F07B64FA62
:101A08007D64FF02238F900176E0FF900136E0FEAF
:101A1800D39F5003EE7006E490022BF0227E0090D4
:101A28000136E0FD1244B47F0F7E00124339900264
:051A38002B740DF022EB
:10220B0041022E0041022A004102710041024100AD
:0B221B004802420000000A0000000A18
:10442800E490022DF0900129F090012BF0A3F09078
:0E443800012AF090012DF0A3F0900127F02250
:0745900090022D7401F022DE
:10400600EF1212FE402300402701402B02403303EB
:10401600402F04403305403706000040337EFF80C2
:10402600127EFF800E7EFF800A7E018006E4FE80FF
:05403600027E80AF06D0
:01403B002262
:1040A500EF1212FE40D20040C20140C60240CA03D0
:1040B50040CE0440D20540D206000040D27E40806A
:1040C5000E7E60800A7EFF80067EA88002E4FEAF39
:0140D50006E4
:0140D60022C7
:10419400EF1212FE41B10041B10141B10241B1033C
:1041A40041B50441B90541BD06000041B1E4FE80BA
:0D41B4000A7EDC80067EFF80027E80AF0662
:0141C10022DB
:1040D700EF1212FE40F40040F40140F40240F403F2
:1040E70040F80440FC05410006000041047EFF80C3
:1040F7000E7E64800A7E3280067E508002E4FEAF28
:0141070006B1
:014108002294
:10403C00EF1212FE406900405901405D02406103DD
:10404C004065044069054069060000406D7E64804F
:10405C00127EFF800E7EFF800A7EFF80067E3280FD
:05406C0002E4FEAF06B6
:01407100222C
:103FCC00EF1212FE3FE9003FED013FF1023FF1031A
:103FDC003FF5043FF9053FFD06000040017E0F80D0
:103FEC00167E0F80127E0A800E7E50800A7EFF8025
:093FFC00067EC88002E4FEAF0657
:014005002298
:101A3D00EF1212FE1A99001AA1011AAB021AB6037F
:101A4D001AC1041ACC051AD7061AE2071AED081A9C
:101A5D00F8091B030A1B100B1B1E0C1B2C0D1B3A2C
:101A6D000E1B480F1B53101B5D111B67121B7113AF
:101A7D001B7B141B83151B8D161B97171BA1181B86
:101A8D00AF191BBD1A1BCB1B00001BD99002247470
:101A9D00FF021BDD90022474FFF0E4021BDE9002B6
:101AAD002474FFF0A3745B805590022474FFF0A39F
:101ABD00748B804A90022474FFF0A374C8803F9009
:101ACD00022474FFF0A374F8803490022474E0F0C3
:101ADD00A374FF802990022474A8F0A374FF801EC4
:101AED00900224747DF0A374FF8013900224743F40
:101AFD00F0A374FF8008E4900224F0A374FFF0E4D7
:101B0D00A3F022E4900224F0A374FFF0A37430F04C
:101B1D0022E4900224F0A374FFF0A37473F022E486
:101B2D00900224F0A374FFF0A374A3F022E49002BA
:101B3D0024F0A374FFF0A374E0F022E4900224F0EB
:101B4D00A374FF021BDFE4900224F0A374C9804C40
:101B5D00E4900224F0A374928042E4900224F0A356
:101B6D0074628038E4900224F0A3744F802EE490C8
:101B7D000224F0A380269002247444F0E4A3801C78
:101B8D00900224746FF0E4A3801290022474A7F0E5
:101B9D00E4A3800890022474E6F0E4A3F0A374FF9C
:101BAD00F02290022474FFF0E4A3F0A374F3F0226A
:101BBD0090022474FFF0E4A3F0A374B7F022900216
:101BCD002474FFF0E4A3F0A37486F022E4900224C1
:061BDD00F0A3F0A3F022CA
:102F0B00EF1212FE2F67002F6B012F6F022F73032F
:102F1B002F77042F7B052F7F062F83072F87082FF3
:102F2B008B092F8F0A2F930B2F970C2F9B0D2F9FF6
:102F3B000E2FA30F2FA7102FAB112FAF122FB313E1
:102F4B002FB7142FBB152FBF162FC3172FC7182F33
:102F5B00CB192FCF1A2FD31B00002FA37E17806AFC
:102F6B007E1280667E1180627E15805E7E04805AA2
:102F7B007E0D80567E0380527E0E804E7E05804AEB
:102F8B007E1A80467E1680427E18803E7E07803AEF
:102F9B007E1980367E098032E4FE802E7E01802AE7
:102FAB007E0C80267E1480227E0B801E7E0F801A64
:102FBB007E1B80167E1080127E08800E7E06800A95
:0C2FCB007E0280067E0A80027E13AF06A4
:012FD70022D7
:0C457500E4900236F0A3F0A3F0021BE378
:03003800021BE3C5
:08238F0090028AEFF0A3EDF0CB
:1023970090028AE0FF900232E08FF0A4FFAEF07C5B
:1023A700007D641210CB900242EFF090028AE0FFAA
:1023B700900233E08FF0A4FFAEF07C007D64121032
:1023C700CB900243EFF090028AE0FF900234E08F57
:1023D700F0A4FFAEF07C007D641210CB900244EFB6
:1023E700F090028BE0FF900232E08FF0A4FFAEF096
:1023F7007C007D641210CB900246EFF090028BE0D8
:10240700FF900233E08FF0A4FFAEF07C007D6412F2
:1024170010CB900247EFF090028BE0FF900234E080
:102427008FF0A4FFAEF07C007D641210CB900248C1
:10243700EFF090028EE0FF25E025E02442F582E4EC
:102447003402F583E0900236F0EF25E025E02443DF
:10245700F582E43402F583E0900237F090028EE0D3
:1024670025E025E02444F582E43402F583E0900278
:1024770038F0900252EFF090028E04F0E0D394010E
:102487004002E4F090028EE0FF25E025E02442F5CB
:1024970082E43402F583E0900232F0EF25E025E094
:1024A7002443F582E43402F583E0900233F090028E
:1024B7008EE025E025E02444F582E43402F583E04C
:1024C700900234F0AE02AF03E4FD121BE390028FDB
:0A24D700E0900258F0E4900257F084
:0124E10022D8
:10356B00AB07AA06900196E0AF05B402191240D73B
:10357B00900236EFF0AF0512403C900237EFF0AF00
:10358B0005123FCC8017124006900236EFF0AF05C4
:10359B001240A5900237EFF0AF051241949002381C
:1035AB00EFF0900252EDF00DEDD394064002E4FDE6
:1035BB00900196E0AF05B402191240D7900232EF9A
:1035CB00F0AF0512403C900233EFF0AF05123FCC49
:1035DB008017124006900232EFF0AF051240A59013
:1035EB000233EFF0AF05124194900234EFF0AE02CC
:0735FB00AF037D02021BE398
:1039B80090028AEEF0A3EFF0A3EBF0EDB40615E465
:1039C800900236F0A3F0A3F090028AE0FEA3E0FF95
:1039D8007D06802B900232E0900236F0900233E0B0
:1039E800900237F0900234E0900238F0E49002320E
:1039F800F0A3F0A3F090028AE0FEA3E0FF7D051299
:103A08001BE390028CE0900258F0E4900257F022F9
:10320C0090028AEEF0A3EFF090024274FFF0E4A378
:10321C00F0A3F0900246F0A374FFF0E4A3F0ED25C8
:10322C00E025E02442F582E43402F583E090023696
:10323C00F0ED25E025E02443F582E43402F583E04B
:10324C00900237F0ED25E025E02444F582E43402C9
:10325C00F583E0900238F0900252EDF00DEDD3942E
:10326C00014002E4FDED25E025E02442F582E43442
:10327C0002F583E0900232F0ED25E025E02443F5E1
:10328C0082E43402F583E0900233F0ED25E025E092
:10329C002444F582E43402F583E0900234F0900289
:1032AC0058EBF0E4900257F090028AE0FEA3E0FFA6
:0532BC007D07021BE389
:101BE30090024CEDF0E4A3F0EF4E6008900250EE4B
:101BF300F0A3EFF0900250E0FFA3E090024ECFF08D
:101C0300A3EFF0900236E0FF900259F0900237E024
:101C1300FE90025AF0900238E0FD90025BF09002D1
:101C230032E090025CF0900233E090025DF09002AB
:101C330034E090025EF0900262EFF0A3EEF0A3EDC9
:101C4300F0A3740AF090025CE0FF900259E0C39F96
:101C5300501090025F7401F0900259E0FF90025C13
:101C6300800DE490025FF090025CE0FF900259E087
:101C7300C39F900269F0900269E0FF7E00900250DA
:101C8300E0FCA3E0FD1210CB900266EFF090026936
:101C9300E0FF7E00900250E0FAA3E0FBFDAC0212ED
:101CA30010CBAF03AE021210CB90026CEFF0900298
:101CB3005DE0FF90025AE0C39F50109002607401F0
:101CC300F090025AE0FF90025D800DE4900260F014
:101CD30090025DE0FF90025AE0C39F90026AF09089
:101CE300026AE0FF7E00900250E0FCA3E0FD1210C8
:101CF300CB900267EFF090026AE0FF7E0090025003
:101D0300E0FAA3E0FBFDAC021210CBAF03AE02126C
:101D130010CB90026DEFF090025EE0FF90025BE06B
:101D2300C39F50109002617401F090025BE0FF903A
:101D3300025E800DE4900261F090025EE0FF90028B
:101D43005BE0C39F90026BF090026BE0FF7E00901C
:101D53000250E0FCA3E0FD1210CB900268EFF0907C
:101D6300026BE0FF7E00900250E0FAA3E0FBFDACC3
:101D7300021210CBAF03AE021210CB90026EEFF043
:011D8300223D
:10005E0090024DE06401600302037CA375F001126F
:10006E001120900250E0FEA3E0FF90024EE06E7071
:10007E0003A3E06F600302019E90025CE0900262B7
:10008E00F090025DE0900263F090025EE0900264F8
:10009E00F090024CE07039A3F090025FE0B40104DE
:1000AE00E4F0800690025F7401F0900260E0B4010B
:1000BE0004E4F080069002607401F0900261E0B4F6
:1000CE000105E4F00204FC9002617401F00204FCEC
:1000DE0090024CE0B40211900252E004F0E0D3948E
:1000EE00064002E4F00203FF90024CE06407600356
:1000FE00020547A3F090025FE0B40104E4F080062D
:10010E0090025F7401F0900260E0B40104E4F080AC
:10011E00069002607401F0900261E0B40104E4F014
:10012E0080069002617401F090025CE0900269F02A
:10013E00900259E090025CF0900269E0900259F052
:10014E0090025DE090026AF090025AE090025DF03B
:10015E0090026AE090025AF090025EE090026BF01C
:10016E0090025BE090025EF090026BE090025BF01A
:10017E00900258E07003020733900257E004F0A398
:10018E00E0FF900257E0C39F50030207330204AF13
:10019E0090025FE064017040900266E0FF90025CA6
:1001AE00E0C39F14FF900262E0D39F4002804C9008
:1001BE000266E0FF900262E02FF090026CE0FD7CA0
:1001CE000090024EE0FEA3E0FF1210CBED4C7062E9
:1001DE00900262E004F0805A900266E0FF90025CAA
:1001EE00E02FFFE433CF2401CF3400FE900262E013
:1001FE00C39FEE6480F8748098500A90025CE09081
:10020E000262F0802D900262E0FF900266E0FEC373
:10021E00EF9E900262F090026CE0FD7C0090024E28
:10022E00E0FEA3E0FF1210CBED4C7006900262E0F0
:10023E0014F0900260E064017040900267E0FF905D
:10024E00025DE0C39F14FF900263E0D39F400280E3
:10025E004C900267E0FF900263E02FF090026DE099
:10026E00FD7C0090024EE0FEA3E0FF1210CBED4CA1
:10027E007062900263E004F0805A900267E0FF9093
:10028E00025DE02FFFE433CF2401CF3400FE900255
:10029E0063E0C39FEE6480F8748098500A90025D0C
:1002AE00E0900263F0802D900263E0FF900267E021
:1002BE00FEC3EF9E900263F090026DE0FD7C009015
:1002CE00024EE0FEA3E0FF1210CBED4C7006900242
:1002DE0063E014F0900261E06401703F900268E008
:1002EE00FF90025EE0C39F14FF900264E0D39F4034
:1002FE00030206FC900268E0FF900264E02FF0908B
:10030E00026EE0FD7C0090024EE0FEA3E0FF1210B4
:10031E00CBED4C60030207330206D1900268E0FF7A
:10032E0090025EE02FFFE433CF2401CF3400FE9025
:10033E000264E0C39FEE6480F87480985003020656
:10034E00FC900264E0FF900268E0FEC3EF9E900214
:10035E0064F090026EE0FD7C0090024EE0FEA3E0A1
:10036E00FF1210CBED4C600302073302072D9002F3
:10037E004E74FFF5F012112090024EE07002A3E0D1
:10038E00600302054D90025CE0900262F090025D07
:10039E00E0900263F090025EE0900264F090024CF6
:1003AE00E07039A304F090025FE0B40104E4F08041
:1003BE000690025F7401F0900260E0B40104E4F074
:1003CE0080069002607401F0900261E0B40104E4D2
:1003DE00F080069002617401F00204FC90024CE081
:1003EE00B4021C900252E004F0E0D394064002E402
:1003FE00F0900252E0FDE4FFFE12356B02073390DF
:10040E00024CE06405704A900250E0FFA3E09002B7
:10041E004ECFF0A3EFF0900236E0900262F0900221
:10042E0037E0900263F0900238E0900264F0A3741B
:10043E000AF0900258E07003020733900257E0046E
:10044E00F0A3E0FF900257E0C39F500302073380F2
:10045E005090024CE064067054900250E0FFA3E00E
:10046E0090024ECFF0A3EFF0900236E0900262F0D1
:10047E00900237E0900263F0900238E0900264F050
:10048E00A3740AF0900258E07003020733900257EB
:10049E00E004F0A3E0FF900257E0C39F5003020771
:1004AE0033E4900262F0A3F0A3F002054790024CF1
:1004BE00E064076003020547A304F090025FE0B416
:1004CE000104E4F0800690025F7401F0900260E097
:1004DE00B40104E4F080069002607401F0900261B1
:1004EE00E0B40104E4F080069002617401F0900221
:1004FE005CE0900269F0900259E090025CF090028C
:10050E0069E0900259F090025DE090026AF090026C
:10051E005AE090025DF090026AE090025AF090026A
:10052E005EE090026BF090025BE090025EF0900253
:10053E006BE090025BF002073312442802073390FF
:10054E00025FE064017040900266E0FF90025CE0A2
:10055E00C39F14FF900262E0D39F4002804C900232
:10056E0066E0FF900262E02FF090026CE0FD7C00EE
:10057E0090024EE0FEA3E0FF1210CBED4C706290A5
:10058E000262E004F0805A900266E0FF90025CE0A6
:10059E002FFFE433CF2401CF3400FE900262E0C37C
:1005AE009FEE6480F8748098500A90025CE090028E
:1005BE0062F0802D900262E0FF900266E0FEC3EFD3
:1005CE009E900262F090026CE0FD7C0090024EE084
:1005DE00FEA3E0FF1210CBED4C7006900262E01409
:1005EE00F0900260E064017040900267E0FF9002BC
:1005FE005DE0C39F14FF900263E0D39F4002804CE6
:10060E00900267E0FF900263E02FF090026DE0FD34
:10061E007C0090024EE0FEA3E0FF1210CBED4C707A
:10062E0062900263E004F0805A900267E0FF90024D
:10063E005DE02FFFE433CF2401CF3400FE90026340
:10064E00E0C39FEE6480F8748098500A90025DE0DB
:10065E00900263F0802D900263E0FF900267E0FE4F
:10066E00C3EF9E900263F090026DE0FD7C0090025D
:10067E004EE0FEA3E0FF1210CBED4C70069002632D
:10068E00E014F0900261E064017040900268E0FFB7
:10069E0090025EE0C39F14FF900264E0D39F40027D
:1006AE00804C900268E0FF900264E02FF090026EA2
:1006BE00E0FD7C0090024EE0FEA3E0FF1210CBEDB9
:1006CE004C7062900264E004F0805A900268E0FF81
:1006DE0090025EE02FFFE433CF2401CF3400FE9072
:1006EE000264E0C39FEE6480F8748098500A900212
:1006FE005EE0900264F0802D900264E0FF9002684C
:10070E00E0FEC3EF9E900264F090026EE0FD7C006E
:10071E0090024EE0FEA3E0FF1210CBED4C7006905F
:10072E000264E014F0900262E0B4FF10A3E0B4FFA4
:10073E000BA3E0B4FF0690026274FEF0900262E03A
:0A074E00FFA3E0FDA3E0FB021F1D66
:10438400E4900218F0900221F0A37402F0E4900289
:1043940019F0A3F0A3EEF0A3EFF0E4A3F0A3F0A3CD
:0443A400F0A3F02270
:104339009002187401F0E4900221F0A304F0E490D3
:104349000219F0A3F0A3EEF0A3EFF0E4A3F0A3F0B9
:07435900A3EEF0A3EFF02238
:104299009002187402F0E4900221F0A37402F0E491
:1042A900900219F0A3F0A3EEF0A3EFF0E4A3F0A3BA
:0842B900F0A3EEF0A3EFF022E8
:1042C1009002187403F0E4900221F0A3741CF0E44E
:1042D100900219F0A3F0A3EEF0A3EFF0E4A3F0A392
:0842E100F0A3EEF0A3EFF022C0
:1042E9009002187407F0E4900221F0A37402F0E43C
:1042F900900219F0A3F0A3EEF0A3EFF0E4A3F0A36A
:08430900F0A3EEF0A3EFF02297
:104311009002187406F0E4900221F0A37402F0E414
:10432100900219F0A3F0A3EEF0A3EFF0E4A3F0A341
:08433100F0A3EEF0A3EFF0226F
:10277E00900219E07002A3E060030228279002186D
:10278E00E014603814605714606724FD607514609F
:10279E007224076003022827900221E09002247021
:1027AE000B74FFF0E4A3F0A37486800974FFF0A30A
:1027BE007450F0E4A3F0A3740AF0805D900232E04E
:1027CE00900224F0900233E0900225F0900234E063
:1027DE00900226F0900235E0900227F0803B9001A7
:1027EE008EE0FEA3E0FF7C007D1C1210CBAF0580B7
:1027FE0008900221E0FF122F0B900223EFF0121A25
:10280E003D8016900221E0700790022474FF800430
:10281E00E4900224F0A3F0A3F090021BE0FEA3E0EC
:10282E00FFC390021AE09F900219E09E500FE475CC
:10283E00F0011211209002287401F0805990021FAD
:10284E00E0FEA3E0FFC390021EE09F90021DE09EFB
:10285E00500EE475F001121120E4900228F080363B
:10286E00E490021DF0A3F0900219F0A3F090022163
:10287E00E004F0900218E0FF600D64036009EF645D
:10288E00076004EFB4060F900222E0FF900221E0F1
:10289E00C39F4002E4F0900228E0B4010D900224A0
:1028AE00E0FFA3E0FDA3E0FB8004E4FBFDFF121FAD
:0228BE001D22D9
:07459700E4FBFDFF021F1D04
:0E455A00900232E0FFA3E0FDA3E0FB021F1D74
:103A180090028AEEF0A3EFF0A903EDB40615E49046
:103A28000236F0A3F0A3F090028AE0FEA3E0FF7D47
:103A380006802B90027DE0900236F090027CE090A8
:103A48000237F090027BE0900238F0E4900232F006
:103A5800A3F0A3F090028AE0FEA3E0FF7D05121B0D
:0C3A6800E3900258E9F0E4900257F022CD
:1040720090028AEEF0A3EFF0900240EDF090022C55
:10408200EBF090028EE090022EF090028AE0FEA306
:10409200E0FF90024AEEF0A3EFF090026FEEF0A381
:0340A200EFF0221A
:1044460090023DE0FFC374239FFFE49400FE9002B8
:0E4456004AF0A3EFF090026FEEF0A3EFF02219
:1038F00090024AE0FEA3E0FFC3900270E09F9002B6
:103900006FE09E4043E4F0A3F0900240E004F0E05A
:10391000FF90022EE0FED39F5017EEC3940140119A
:10392000900232E0FFA3E0FDA3E0FB121F1D7F0128
:1039300022E4FBFDFF121F1D90022CE0FF900240CD
:10394000E0C39F400D7F012290026FE475F00112E9
:0539500011207F0022A0
:1038810090024AE0FEA3E0FFC3900270E09F900225
:103891006FE09E404DE4F0A3F0900240E004F0E0C0
:1038A100FF90022EE0FED39F5010EEC39401400A18
:1038B100E4FBFDFF121F1D7F012290022CE0FF900F
:1038C100022EE0FED39F5003EE7007E4FBFDFF12D2
:1038D1001F1D90022CE0FF900240E0C39F400D7F2E
:0F38E100012290026FE475F0011211207F002286
:1024E20090017CE075F004A4FFAEF07C007D0A123E
:1024F20010CB900187EFF0E0FF900179E08FF0A41C
:10250200FFAEF07C007D641210CB900181EEF0A34F
:10251200EFF0D394FFEE9400400890017E74FFF038
:10252200801B900187E0FF900179E08FF0A4FFAE5D
:10253200F07C007D641210CB90017EEFF090018759
:10254200E0FF90017AE08FF0A4FFAEF07C007D64A2
:102552001210CB900183EEF0A3EFF0D394FFEE9430
:1025620000400890017F74FFF0801B900187E0FF1C
:1025720090017AE08FF0A4FFAEF07C007D6412102F
:10258200CB90017FEFF0900187E0FF90017BE08F1D
:10259200F0A4FFAEF07C007D641210CB900185EEBA
:1025A200F0A3EFF0D394FFEE940040089001807402
:1025B200FFF0801B900187E0FF90017BE08FF0A489
:1025C200FFAEF07C007D641210CB900180EFF090A2
:1025D200017DE0700FA3E0FFA3E0FDA3E0FB121F6B
:1025E2001D7F012290024AE0FEA3E0FFC390027029
:1025F200E09F90026FE09E4029E4F0A3F090022F4A
:10260200E0B4010FE4F090017EE0FFA3E0FDA3E05F
:10261200FB800A90022F7401F0E4FBFDFF121F1DE4
:0F262200800A90026FE475F0011211207F0022F0
:10451D0090013FE0B4020890023BE0FF1228C02258
:10452D00900140E0B4020890023BE0FF1228C02247
:1044B400EEC313FEEF13FFD3ED9FE49E400890027A
:0744C4003BE0FF1228C022BB
:103ECB0090028AEEF0A3EFF0900240EDF090022CFE
:103EDB00EBF090028EE090022EF090028AE0FEA3AF
:103EEB00E0FF90024AEEF0A3EFF090026FEEF0A32A
:103EFB00EFF0E490022AF0900271F090028FE090C4
:043F0B000241F0225D
:10309A0090024AE0FEA3E0FFC3900270E09F900214
:1030AA006FE09E5003023149E4F0A3F0900240E041
:1030BA0004F090022AE07033900240E0FF90022E62
:1030CA00E0FED39F500EEEC39401400890022A748A
:1030DA0001F08007E4FBFDFF121F1D90022CE0FFA8
:1030EA00900240E0D39F40037F012290022AE064CD
:1030FA00017056900271E0C394074018900241E0B3
:10310A0064017006900271F0800EE4FBFDFF121F4D
:10311A001D7F0122900271E0FF124006AC07900267
:10312A0071E0FF1240A5AD07900271E0FF124194D1
:10313A00AB07AF04121F1D900271E004F0800A90E1
:0C314A00026FE475F0011211207F0022DA
:1033740090013EE0FF64016009EF64086004EFB46B
:103384000F07E4900232F08053EF64026009EF64A7
:10339400096004EFB4100990023274FFF0E4807DF8
:1033A400EF64036065EF640A6060EFB41102805A51
:1033B400EF64046009EF640B6004EFB41209900237
:1033C4003274FFF0A3804BEF64056009EF640C6076
:1033D40004EFB4130E90023274A7F0E4A3F0A374C4
:1033E400FFF022EF64066009EF640D6004EFB4148B
:1033F4000B90023274FFF0A374508016EF640760E0
:1034040009EF640E6004EFB4150DE4900232F0A3EA
:1034140074FFF0E4A3F02290023274FFF0A3F0A34F
:02342400F02294
:102D5F0090023DE064147003022E3990022BE012B2
:102D6F0012FE2DDB002DE1012DE7022DE7032DE7EC
:102D7F00042DE7052DE7062DE7082DE7092DE70AB6
:102D8F002DE70B2DF80C2DF80D2DF80E2DF80F2D1E
:102D9F00E7172DF8192DF81A2E091C2E111D2E09C3
:102DAF00202E11212E092A2E112B2E092E2E112FF6
:102DBF002E2A3D2E09492E094A2E114B2E254C2E17
:102DCF00254D2E1B4F2DE75C00002E391244280293
:102DDF00459712442802455A90023DE06414604A18
:102DEF0090012A7401F002005E90023DE0641460CD
:102DFF003990012A7401F002277E1238F0EF602417
:102E0F00801F123881EF6002801780181224E2EFC2
:102E1F006002800D800E12455A800612309AEF60C4
:0B2E2F000302442890012A7401F022E5
:0D22270090028BEDF0900289EEF0A3EFF035
:10223400E490028CF0A907E9C394805004E4F98087
:102244000279807D807C00900289E0FEE97A002496
:1022540000FFEA3E90028DF0A3EFF0ED7003EC6412
:1022640001602990028DE0FEA3E0F5828E83E49361
:102274008D828C83F090028CE004F00DBD00010C83
:1022840090028DE475F00112112080CF900289A391
:10229400E0F9C39480E9500A2480FFE433FCAD07DD
:1022A40080037C00FD90028BE08D828C83F0900291
:1022B40089E0FEA3E0FBF5A6EEFFF5A775AEFFA24D
:1022C400AF9205C2AF75C7AA75C755439F01A20552
:1022D40092AFA2AF9205C2AF75C7AA75C75543A501
:1022E40001A20592AF75AF22A2AF9205C2AF75C726
:1022F400AA75C75543A401A20592AFA903E9C394E3
:10230400805004E4F9800279807C007D80AE018EE7
:10231400A68FA7A2AF9205C2AF75C7AA75C75543CA
:102324009F01A20592AFA2AF9205C2AF75C7AA756D
:10233400C75543A501A20592AF75AF21EDF44C60DA
:10234400238D828C83E0F5AEA2AF9205C2AF75C730
:10235400AA75C75543A401A20592AF05A60DBD00F9
:10236400010C80D8A2AF9205C2AF75C7AA75C75534
:1023740053A5FEA20592AFA2AF9205C2AF75C7AA3C
:0A23840075C755539FFEA20592AFE6
:01238E00222C
:044581008F828E8314
:03458500E493FFBD
:014588002210
:10345200020758E493A3F8E493A34003F68001F231
:1034620008DFF48029E493A3F85407240CC8C3337B
:10347200C4540F4420C8834004F456800146F6DF4A
:10348200E4800B01020408102040809020A3E47E17
:10349200019360BCA3FF543F30E509541FFEE4933F
:1034A200A360010ECF54C025E060A840B8E493A306
:1034B200FAE493A3F8E493A3C8C582C8CAC583CA31
:1034C200F0A3C8C582C8CAC583CADFE9DEE780BEE9
:0122260000B7
:100F8F00E709F608DFFA8046E709F208DFFA803E44
:100F9F0088828C83E709F0A3DFFA8032E309F60831
:100FAF00DFFA8078E309F208DFFA807088828C8399
:100FBF00E309F0A3DFFA806489828A83E0A3F6084D
:100FCF00DFFA805889828A83E0A3F208DFFA804C27
:100FDF0080D280FA80C680D4806980F280338010FE
:100FEF0080A680EA809A80A880DA80E280CA803367
:100FFF0089828A83ECFAE493A3C8C582C8CCC583DF
:10100F00CCF0A3C8C582C8CCC583CCDFE9DEE780AE
:10101F000D89828A83E493A3F608DFF9ECFAA9F02D
:10102F00EDFB2289828A83ECFAE0A3C8C582C8CC83
:10103F00C583CCF0A3C8C582C8CCC583CCDFEADE9C
:10104F00E880DB89828A83E493A3F208DFF980CCFE
:10105F0088F0EF60010E4E60C388F0ED2402B404F7
:10106F000050B9F582EB2402B4040050AF2323459E
:06107F008223900FDF73D5
:10108500BB010689828A83E0225002E722BBFE0269
:09109500E32289828A83E493229C
:10109E00BB010CE58229F582E5833AF583E0225007
:1010AE0006E92582F8E622BBFE06E92582F8E22251
:0D10BE00E58229F582E5833AF583E493226B
:1010CB00BC000BBE0029EF8DF084FFADF022E4CC09
:1010DB00F875F008EF2FFFEE33FEEC33FCEE9DECD2
:1010EB00984005FCEE9DFE0FD5F0E9E4CEFD22ED18
:1010FB00F8F5F0EE8420D21CFEADF075F008EF2F62
:10110B00FFED33FD4007985006D5F0F222C398FD52
:05111B000FD5F0EA22EF
:10112000C5F0F8A3E028F0C5F0F8E582158270025A
:061130001583E038F022F7
:10113600E88FF0A4CC8BF0A42CFCE98EF0A42CFC58
:101146008AF0EDA42CFCEA8EF0A4CDA8F08BF0A4D6
:101156002DCC3825F0FDE98FF0A42CCD35F0FCEB35
:101166008EF0A4FEA9F0EB8FF0A4CFC5F02ECD39FA
:0F117600FEE43CFCEAA42DCE35F0FDE43CFC2267
:1011850075F008758200EF2FFFEE33FECD33CDCC21
:1011950033CCC58233C5829BED9AEC99E5829840A4
:1011A5000CF582EE9BFEED9AFDEC99FC0FD5F0D681
:1011B500E4CEFBE4CDFAE4CCF9A88222B800C1B9AB
:1011C5000059BA002DEC8BF084CFCECDFCE5F0CBE9
:1011D500F97818EF2FFFEE33FEED33FDEC33FCEB22
:1011E50033FB10D703994004EB99FB0FD8E5E4F9DD
:1011F500FA227818EF2FFFEE33FEED33FDEC33FCCA
:10120500C933C910D7059BE99A4007EC9BFCE99ABD
:10121500F90FD8E0E4C9FAE4CCFB2275F010EF2F02
:10122500FFEE33FEED33FDCC33CCC833C810D70702
:101235009BEC9AE899400AED9BFDEC9AFCE899F83D
:0E1245000FD5F0DAE4CDFBE4CCFAE4C8F922D0
:103F0F00C2D5E830E70FB2D5E4C39BFBE49AFAE4DD
:103F1F0099F9E498F8EC30E717B2D5123F45121132
:103F2F00C1E4C39BFBE49AFAE499F9E498F880039F
:103F3F001211C130D50DE4C39FFFE49EFEE49DFD39
:043F4F00E49CFC22D0
:10125300EB9FF5F0EA9E42F0E99D42F0E89C45F0F1
:011263002268
:10126400E8600FECC313FCED13FDEE13FEEF13FF68
:03127400D8F1228C
:10127700E86010ECA2E713FCED13FDEE13FEEF138D
:04128700FFD8F0227A
:0C128B00E0FCA3E0FDA3E0FEA3E0FF22D6
:0C129700E0F8A3E0F9A3E0FAA3E0FB22DA
:0C12A300ECF0A3EDF0A3EEF0A3EFF022BE
:1012AF00A8828583F0D083D0821212C61212C61282
:1012BF0012C61212C6E473E493A3C583C5F0C583A7
:1012CF00C8C582C8F0A3C583C5F0C583C8C582C889
:0112DF0022EC
:0C12E000A42582F582E5F03583F5832219
:0912EC00E0FBA3E0FAA3E0F92203
:0912F500EBF0A3EAF0A3E9F022FA
:1012FE00D083D082F8E4937012740193700DA3A37F
:10130E0093F8740193F5828883E473740293686092
:06131E00EFA3A3A380DF92
:10132400EF4E6012EF60010EEDBB010B89828A83E0
:10133400F0A3DFFCDEFA2289F05007F709DFFCA9ED
:0C134400F022BBFEFCF309DFFCA9F02244
:00000001FF
